:020000040800F2
:10000000681D0020AD5D0008E55D0008E95D0008A1
:10001000ED5D0008F15D0008F55D000800000000DE
:10002000000000000000000000000000F95D000872
:10003000FD5D000800000000015E00083F3E000872
:10004000054100080F41000819410008234100083C
:100050002D410008374100084F3E0008753E00085A
:100060009B3E0008C13E0008E73E00087D3F0008B7
:10007000A33F0008C93F0008E93F00080940000805
:100080002940000849400008414100084B41000850
:100090005D41000867410008714100080D3F0008FC
:1000A0007B410008854100088F4100089941000804
:1000B000A3410008AD410008B7410008C141000854
:1000C000CB410008D5410008DF410008E9410008A4
:1000D000F3410008014200080B42000815420008E5
:1000E000453F00081F42000829420008334200082B
:1000F0003D4200084942000855420008614200089C
:100100006D420008794200088542000891420008CB
:100110009D420008A9420008B5420008C1420008FB
:100120006940000889400008A9400008C94000084B
:1001300000F5E0700268914203D343689A18914237
:1001400002D380680028F5D17047DFF858070168AE
:1001500091B94FF4803181604FF4805141604FF08C
:10016000FF31C16001610421DFF83C274161C2F821
:10017000BC11DFF8381701600120704701F1080356
:1001800013F0070305D001F10803C3F1080303F0DE
:1001900007035918D21A8161C26042F001034B6013
:1001A000511828234B60DFF8FC160969C1617047BC
:1001B0002DE9F84F064601F1080010F0070008BFCE
:1001C000884607D001F10800C0F1080000F00700E0
:1001D00000EB010802F1080010F0070006D002F160
:1001E0000800C0F1080000F0070082181546A5EBD2
:1001F0000800A0EB030903EB080B43F00300C8F869
:100200000400AB4528BF01F00BFA2879C00758BF9E
:1002100001F006FAB9F1100F38BF01F001FAB06928
:10022000854209D1F0684844F060C6F818B040F043
:100230000100CBF804006DE1706985420BD1B06814
:100240004844B060C6F814B040F00101CBF8041087
:1002500040F80B005EE1686800F00301012940F0FE
:10026000AD80C008C0000190C00820283AD2D5F85F
:1002700008A0EF680090BD4208BF01F0D1F95545D4
:1002800008BF01F0CDF968680099C008C000B0EB64
:10029000C10F18BF01F0C4F9009806EBC00000F1CF
:1002A00028018A4507D031698A45C0F08280DAF892
:1002B0000C10A9427DD1574506D1009A3068012122
:1002C00091408843306076E02830874205D030691D
:1002D00087426ED3B868A8426BD1CAF80C70C7F8D1
:1002E00008A068E0EF68D5F818A0AF420CD0A86865
:1002F0003169884223D3C168A94204BFB968A942C1
:100300001DD1C760B8601CE005F11400076837B95B
:1003100005F110000768A7B101E00846076807F17A
:1003200014010A68002A02BF07F110010A68002AB6
:10033000F3D13169884202D30021016001E001F06C
:100340006FF9BAF1000F36D0E86906EB800000F5CE
:10035000987001688D4208D10760A7B9EA69706892
:10036000012191408843706025E03069824508D3BF
:10037000DAF81000A84214BFCAF81470CAF8107056
:1003800001E001F04DF9B7B13069874211D3C7F8E8
:1003900018A0296929B1814226BF39618F6101F016
:1003A0003FF9686938B13169884202D37861876161
:1003B00001E001F035F90198451981446868400869
:1003C000400068604FEAD90549F00100CBF804000D
:1003D00049F80B90202D23D206EBC50000F1280729
:1003E000BA46B9F1100F38BF01F01AF9306820FA97
:1003F00005F1C90704D40121A9400843306006E093
:10040000B868316988422CBF824601F009F9C7F803
:1004100008B0CAF80CB0CBF808A0CBF80C7079E0A3
:100420005FEA192108BF002023D0B1F5803F28BF23
:100430001F201ED2A1F58070000C00F00800814042
:10044000A1F58052120C02F004029140A1F5804304
:100450001B0CC0F10E0003F00203801AC01A994071
:1004600000EBD130C11D29FA01F202F0010101EBCC
:100470004000CBF81C000022CBF81420CBF8102051
:1004800006EB8001726822FA00F3DB0701F5987130
:1004900007D4012303FA00F010437060C1F800B0E4
:1004A0001DE009681F280EBF00204008C0F1190098
:1004B00009FA00F000E011464A68D208D2004A4525
:1004C00014D0C20F01EB820202F1100340001A683F
:1004D000002AF0D1306983421AD3C3F800B0CBF8B8
:1004E0001810CBF80CB0CBF808B013E0326988686C
:1004F000914228BF90420BD3C0F80CB0C1F808B0AD
:10050000CBF80800CBF80C100020CBF8180001E065
:1005100001F086F808F10800BDE8E68F2DE9FA4DF4
:100520000546DFF8800384B0006808B9FFF70DFEC8
:10053000DFF870030499806841182F31401E21EACA
:1005400000000499814280F0A88105F5D876B16851
:1005500039B132688018824280F09F818142C0F0B8
:100560009C8101F065F800281EBF0446D0F8008089
:1005700014F1010F00F091813068716840443060DF
:10058000814238BF01467160A86980BB286908B103
:10059000844200D22C610020F0613461C6F81480DE
:1005A00005F12801BF48006868624FF0FF302862FB
:1005B000002001F10802C9601160801C1031202860
:1005C000D2609260F5D3B848854203D1A8F12802E1
:1005D000214629E055F8040CC00805EBC000A0F145
:1005E000080108EB0400401AA0F128021CE005F500
:1005F000E071084600E08068D0B1026843689A184C
:100600009442F8D1027B120712D4AA6903689A4275
:100610000ED347683B449A420AD208EB0701416077
:10062000E868A96908EB00022846FFF7A7FD1EE16C
:1006300028698442084638BF2C6108EB040100E0B9
:10064000806880B102688A42FAD1017B09070AD426
:1006500004604168414441602146049B284606B03D
:10066000BDE8F04DA4E5AF6939462846FFF760FDC7
:1006700001684068401802902F3800F1080111F01D
:10068000070105D000F10801C1F1080101F00701DF
:10069000081807F11001884234BF009700900098B5
:1006A0000830019004F10801009800F1180A11F0D7
:1006B00007014FF0000BA8F1280005D004F1080154
:1006C000C1F1080101F007010A19401AAA61E860A6
:1006D00040F0010151608018282141607148006993
:1006E000E861019810F0070018BF00F099FF009929
:1006F0001B20486005F5E071B1E80C500198A0E8B6
:100700000C503461C6F81480C6F81CB00198B06172
:10071000029800E08A460722CAF804200AF1040180
:100720000A1D82420BF1010BF4D3BBF1020FB8BFDB
:1007300000F076FF0098B84200F09980C01BC11904
:10074000C4084A68520852004A6040F001017960CA
:10075000C051202C20D205EBC40101F12806B0467F
:10076000102838BF00F05CFF286820FA04F1C907A0
:1007700004D40121A1400843286006E0B06829693B
:1007800088422CBF804600F04BFFB760C8F80C7061
:10079000C7F80880FE606AE0010A08BF002223D083
:1007A000B1F5803F28BF1F221ED2A1F58072120C26
:1007B00002F008029140A1F580531B0C03F00403E2
:1007C0009940A1F58044240CC2F10E0204F0020409
:1007D000D21A121BA14002EBD131CA1D20FA02F33A
:1007E00003F0010202EB4102FA6100237B613B61ED
:1007F00005EB82016B6823FA02F4E40701F59871B6
:1008000005D401209040184368600F601CE009681F
:100810001F2A0EBF00225208C2F1190200FA02F28A
:1008200000E019464B68DB08DB00834210D0D30F91
:1008300001EB830303F1100452002368002BF0D175
:100840002869844211D32760B961FF60BF600EE060
:100850002A698868914228BF904206D3C7608F609A
:10086000B860F9600020B86101E000F0D9FEE868E6
:100870000499814211D2401AE860A969049A521879
:10088000AA6140F001005060049840F00300486005
:1008900006B001F10800BDE8F08D002006B0BDE80B
:1008A000F08D0000B4140020E41000206859883C4A
:1008B0002DE9F04D0446002688465FEA1820C8F16D
:1008C000000B08BF002123D0B0F5803F28BF1F21B7
:1008D0001ED2A0F58071090C01F008018840A0F536
:1008E0008052120C02F004029040A0F580431B0CD1
:1008F000C1F10E0103F00203891AC91A984001EBF5
:10090000D030C11D28FA01F202F0010101EB4001D3
:1009100004EB8100D0F8300118B31F290EBF00226C
:100920004A08C2F1190208FA02F2002300E052005C
:100930004568ED08ED00A5EB08055D4503D25FEACB
:10094000050B06460BD04569D70F00EB8700002D3D
:1009500000691CBF85422B460028E8D11846B8BB69
:10096000C6BB0120884040004142084361680840FE
:1009700000F0638141420840401E010B01F010016C
:10098000C840420902F00802D040830803F0040383
:10099000D840450805F002055118E8405918C0F341
:1009A000400729443944F840401804EB8000D0F84F
:1009B00030010DE008464168C908C900A1EB0801F3
:1009C00059453CBF8B46064601690029F2D1406972
:1009D0000028F0D1002E00F03081A068A0EB0800C4
:1009E000834580F02A8120698642C0F024817068A6
:1009F000C008C00008EB0B0108EB0605884218BFD1
:100A000000F00EFEAE4280F01681F768D6F818A00E
:100A1000B7420CD0B0682169884223D3C168B14283
:100A200004BFB968B1421DD1C760B8601CE006F1CF
:100A30001400076837B906F110000768A7B101E094
:100A40000846076807F114010A68002A02BF07F187
:100A500010010A68002AF3D12169884202D30021DB
:100A6000016001E000F0DCFDBAF1000F38D0F06960
:100A700004EB800000F5987001688E4209D1076090
:100A8000380014D1F26960680121914088436060A8
:100A900026E02069824508D3DAF81000B04214BF7E
:100AA000CAF81470CAF8107001E000F0B9FDBFB1C7
:100AB0002069874212D3C7F818A0306930B1216984
:100AC000884226BF3861876100F0AAFD706938B19D
:100AD0002169884202D37861876101E000F0A0FDBE
:100AE000BBF1100F0CD208EB0B0040F0030070605C
:100AF00008EB0B008019416841F00101416096E06C
:100B000048F0030070604BF0010068604FEADB00C2
:100B10004BF805B020281DD204EBC00101F12807D5
:100B2000216821FA00F2D207BB4605D4012202FA5D
:100B300000F00843206006E0B868216988422CBFB5
:100B4000834600F06DFDBD60CBF80C50C5F808B0D1
:100B5000EF606CE05FEA1B2108BF002023D0B1F5F5
:100B6000803F28BF1F201ED2A1F58070000C00F02E
:100B700008008140A1F58052120C02F0040291405D
:100B8000A1F580431B0CC0F10E0003F00203801A94
:100B9000C01A994000EBD130C11D2BFA01F202F0CE
:100BA000010101EB4000E86100226A612A6104EB67
:100BB0008001626822FA00F3DB0701F5987106D420
:100BC000012303FA00F0104360600D601CE0096827
:100BD0001F280EBF00204008C0F119000BFA00F0DA
:100BE00000E011464A68D208D2005A4510D0C20F20
:100BF00001EB820202F1100340001A68002AF0D1D2
:100C00002069834211D31D60A961ED60AD600EE0E3
:100C100022698868914228BF904206D3C5608D60E2
:100C2000A860E9600020A86101E000F0F9FC06F18D
:100C30000800BDE8F08D00F0F3FC0020BDE8F08D69
:100C40002DE9F84F04468846606841420840401E3E
:100C5000010B01F01001C840420902F00802D04027
:100C6000830803F00403D840450805F00205511835
:100C7000E8405918C0F3400629447118F040401864
:100C800004EB8000D0F830014168C908C90006466D
:100C9000A1EB080A09E008464168C908C900A1EBB0
:100CA000080151453CBF8A46064601690029F2D138
:100CB00040690028F0D120698642C0F0C480706885
:100CC000C00808EB0A09C00008EB060B484518BF2E
:100CD00000F0A6FC5E4580F0B680F768B569B742C3
:100CE0000CD0B0682169884223D3C168B14204BFE7
:100CF000B968B1421DD1C760B8601CE006F11400AC
:100D0000076837B906F110000768A7B101E0084687
:100D1000076807F114010A68002A02BF07F11001F1
:100D20000A68002AF3D12169884202D300210160B8
:100D300001E000F075FC002D34D0F06904EB800078
:100D400000F5987001688E4209D10760380011D112
:100D5000F2696068012191408843606022E0206967
:100D6000854205D32869B04214BF6F612F6101E04D
:100D700000F056FCB7B12069874211D3BD613069DC
:100D800030B12169884226BF3861876100F048FC94
:100D9000706938B12169884202D37861876101E0C6
:100DA00000F03EFCBAF1100F09D249F00300706068
:100DB00009EB0600416841F0010141603FE048F065
:100DC000030070604AF00100CBF804004AF80BA061
:100DD000D4F808804FEAD805202D28BF00F020FC69
:100DE000B8F1000F27D0D4F81490009504EBC5009B
:100DF00000F128052F46B8F1100F38BF00F010FCA5
:100E00002068009920FA01F2D10705D4009A012147
:100E100091400843206006E0A868216988422CBF01
:100E2000074600F0FDFBC5F80890C7F80C90C9F81C
:100E30000870C9F80C50C4F808A0C4F814B006F142
:100E40000800BDE8F28F00F0EBFB0020BDE8F28F58
:100E50002DE9F04F83B00546C046C046F52DDFF8BA
:100E6000B84780F002810B2D31BF102705F10B0030
:100E7000C708FF002068FE08F04010F0030F42D0C2
:100E8000C04300F00100861904EBC60000F12808F9
:100E9000F700D8F808506868C008C000B84218BF0A
:100EA00000F0BEFBD5F80890454508BF00F0B8FB40
:100EB0004D4508BF00F0B4FB6868C008C000B842E8
:100EC00018BF00F0ADFBC84505D120680121B14035
:100ED000884320600DE02069814508D3D9F80C00D3
:100EE000A84204D1C8F80890C9F80C8001E000F0CD
:100EF00097FB47F00300686078190835416841F0B6
:100F000001014160F9E0A168B94280F0C080002889
:100F100000F0A280012505FA06F149004A42B040DE
:100F20001143084041420840401E010B01F01001EE
:100F3000C840420902F00802D040830803F00403CD
:100F4000D840460806F002065118F0405918C0F380
:100F500040087118414420FA08F000EB010804EB46
:100F6000C80000F128094FEAC80AD9F8086070687B
:100F7000C008C000504518BF00F052FBD6F808B0BA
:100F80004E4508BF00F04CFB5E4508BF00F048FB33
:100F90007068C008C000504518BF00F041FBD9453B
:100FA00005D1206805FA08F1884320600DE020692A
:100FB000834508D3DBF80C00B04204D1C9F808B06F
:100FC000CBF80C9001E000F02BFB47F003007060C1
:100FD000AAEB0708B819019048F001000199486090
:100FE000019848F80080A7684FEAD70ABAF1200FA5
:100FF00028BF00F015FB47B3CDF800A004EBCA00F2
:10100000D4F8149000F1280AD346102F38BF00F00E
:1010100007FB2068009920FA01F2D10705D4009956
:1010200005FA01F10843206007E0DAF808002169B9
:1010300088422CBF834600F0F3FACAF80890CBF838
:101040000C90C9F808B0C9F80CA0C4F8088006F1E3
:1010500008050198606150E06068C0B339462046D9
:10106000FFF7EEFD050012D047E015F1400F28BF55
:101070004FF0FF370BD205F10B00C7086068FF0087
:1010800028B139462046FFF713FC050035D1A0688A
:10109000B8421CD3C11B626910290AD3B818606119
:1010A000A16041F001034360095047F00300506024
:1010B0000AE00021A160616140F0030151608018E5
:1010C000416841F00101416002F1080515E0E06866
:1010D00087420DD2C01BA169E0607A18A26140F07E
:1010E0000100506001F1080547F00300486004E08A
:1010F00039462046FFF712FA0546C046C046284644
:1011000003B0BDE8F08F00B970472DE9F047A0F1BA
:101110000804C046C046DFF8005528698442C0F084
:101120007482616801F00302012A00F06E82CA082D
:101130004FEAC208CA0708EB040936D4226811F046
:10114000030F00F06482A41A84429044C0F05D82D0
:1011500069698C4200F0D880D608202E70D2D4F86D
:101160000CA0A768544508BF00F05AFABC4208BF5B
:1011700000F056FA6068C008C000B0EBC60F18BF98
:1011800000F04EFA05EBC60000F128018F4205D0B1
:1011900029698F4251D3F968A1424ED1BA453DD158
:1011A00028680121B140884328604C4580F02D8299
:1011B000D9F80400C10740F12882810700F17A8143
:1011C000A969894540F0B580E868AC614044E860B1
:1011D00040F00101616069698C4202D100216961BE
:1011E000A960E969814280F01282DFF8300400686A
:1011F00008B9FEF7AAFFA969002900F00882E8688B
:10120000292824BF2846FEF793FFE869E968884249
:1012100080F0FD814FF0FF30E861F8E12830824531
:1012200006D02869824508D3DAF80800A04204D124
:10123000C7F80CA0CAF80870B7E700F0F1F9B4E7F6
:10124000E768A669A7420BD0A168814222D3C8688B
:10125000A04204BFB868A0421CD1CF60B9601BE0B7
:1012600004F114010F6837B904F110010F689FB140
:1012700001E011460F6807F114021368002B02BF4A
:1012800007F110021368002BF3D1814202D3002032
:10129000086001E000F0C4F9002E86D0E06905EB9B
:1012A000800000F5987001688C4209D10760380011
:1012B00011D1E2696868012191408843686074E750
:1012C0002869864205D33069A04214BF776137612F
:1012D00001E000F0A5F9002F3FF467AF28698742CD
:1012E000ABD3BE61216929B1814226BF39618F61CB
:1012F00000F096F9606900283FF457AF29698842E9
:101300009BD37861876150E799F8040000F00300EF
:1013100003287FF44AAFC5F80880D9F804004008D4
:101320004000C9F8040048F00100606048F80480FB
:101330006DE16969894508D1A8686C614044A8607D
:1013400040F001016160005161E1C008C0004FEA56
:10135000D00ABAF1200F804436D2D9F80C70D9F8EF
:101360000860B94508BF00F05BF9B14508BF00F05F
:1013700057F9D9F80400C008C000B0EBCA0F18BF75
:1013800000F04EF905EBCA0000F128018E4206D0AC
:1013900029698E42C0F08180F16849457DD1B7420C
:1013A00006D12868012101FA0AF18843286076E015
:1013B0002830874205D0286987426ED3B8684845EF
:1013C0006BD1F760BE606AE0D9F80C70D9F818608C
:1013D0004F450DD0D9F808002969884223D3C16848
:1013E000494504BFB96849451DD1C760B8601CE0D4
:1013F00009F11400076837B909F110000768A7B1AF
:1014000001E00846076807F114010A68002A02BFD4
:1014100007F110010A68002AF3D12969884202D332
:101420000021016001E000F0FBF8002E37D0D9F870
:101430001C0005EB800000F59870016889450AD111
:101440000760380012D1D9F81C206868012191404A
:101450008843686023E02869864205D3306948459F
:1014600014BF7761376101E000F0DAF8BFB1286995
:10147000874212D3BE61D9F8101029B1814226BF2C
:1014800039618F6100F0CCF8D9F8140038B12969BE
:10149000884202D37861876101E000F0C1F848F02A
:1014A0000100606048F80480686984420BD1C5F887
:1014B0000880ACE040084000C9F8040048F0010092
:1014C000606048F804804FEAD807202F22D205EB4D
:1014D000C70000F128094E46B8F1100F38BF00F0E0
:1014E0009FF8286820FA07F1C90704D40121B94000
:1014F0000843286007E0D9F80800296988422CBF12
:10150000064600F08DF8C9F80840F460A660C4F8FB
:101510000C907CE05FEA182008BF002123D0B0F5D2
:10152000803F28BF1F211ED2A0F58071090C01F059
:1015300008018840A0F58052120C02F0040290408D
:10154000A0F580431B0CC1F10E0103F00203891AC0
:10155000C91A984001EBD030C11D28FA01F202F0FF
:10156000010101EB4001002262612261E16105EBB2
:1015700081006A6822FA01F3DB0700F5987006D44F
:10158000012303FA01F11143696004601CE0006863
:101590001F290EBF00214908C1F1190108FA01F104
:1015A00000E010464268D208D200424510D0CA0F6F
:1015B00000EB820202F1100349001A68002AF0D100
:1015C00029698B4211D31C60A061E460A4600EE025
:1015D0002A698168904228BF914206D3CC6084601A
:1015E000E060A1600020A06101E000F019F8286A25
:1015F000401E28620BD1D5F8C80100E080680028A1
:10160000FCD14FF0FF30286201E000F009F8C0463D
:10161000C046BDE8F0870000E4100020B4140020AC
:10162000012000F01BB80268531C03601170704762
:101630000749086808B1002070470648C008C00084
:1016400008600549C908C900091A0160704700BF50
:101650005C1500206F1D00206825002080B5C04665
:10166000C046024A11001820ABBEFBE7260002006C
:101670002DE9F04FA1B08046002017461D4602918B
:101680000B900DF1440A6FF000490AE017F8011BB6
:101690000298C0470028029000F0A5820B98401CD9
:1016A0000B90387808B90B989FE22528EED10020DE
:1016B000059006900790089009900A9001E040F08C
:1016C000010017F8011F2029F9D023290DD02B295B
:1016D00004D02D2906D030290AD00CE040F00200B9
:1016E00080B2EEE740F00400FAE740F00800F7E7C8
:1016F00040F01000F4E72A290ED12968296051F83A
:10170000042B2960002A0D9204D5514240F00400B8
:101710000D9180B27F1C11E000210D9109E00D991F
:10172000494505D001EB810302EB430130390D91AE
:101730007F1C3A78A2F130010A29F0D339782E299A
:1017400003D04FF0FF310C911DE017F8011F2A293B
:1017500007D1296829607F1C51F8042B29600C925D
:1017600011E000210C9109E00C99494505D001EBED
:10177000810302EB430130390C917F1C3A78A2F1CE
:1017800030010A29F0D3ADF838000FF6CC203978B3
:1017900000F070FD08B117F8010B8DF83A009DF8C4
:1017A0003A00682802BF39786829622005D06C2881
:1017B00004BF38786C2803D171208DF83A007F1C63
:1017C00011A8049017F8014BB4F1250023D020385C
:1017D000022840F2BB80133800F0E0800B3800F0A4
:1017E0004A81401E00F02381401E022840F2AE8054
:1017F000001F00F01C81401F79D0401E00F0CE80F9
:10180000401E24D0C01E0BD0801E00F0C780C01E1A
:1018100000F0C48039E125208DF8440001203DE12D
:101820002868286050F8046B286003960C9C002CF4
:1018300004D5304600F02AFD044606E02246002189
:10184000304600F03FFD00B1841B069427E1296873
:1018500029603C2451F8040B29600021CDE90001E6
:1018600011A80390DDE90001049E11B908B90C9A92
:10187000B2B10206120FA0EB02123032D2B2631ED6
:101880003A2AA8BF273200099A5540EA017009098F
:1018900008BF00281C4603D0039AA3199A42E8D334
:1018A000A0190390C4F13C010C980691814209DA19
:1018B000401A08904FF6EF71BDF838000840ADF8B7
:1018C0003800ECE0002840F1EA809DF8380000F094
:1018D0001400102840F0E3800D98059A801A089AA9
:1018E000801A441A012CC0F2DA800894D7E09DF8DF
:1018F0003A0062281AD0682806D06A280CD06C28D2
:101900001CD0712808D019E02868286050F8041B02
:1019100028600B980880C2E02868286050F8042BE3
:1019200028600B98C117C2E90001B8E02868286058
:1019300050F8041B28600B980870B0E028682860F5
:1019400050F8041B28600B980860A8E02868C01DA8
:1019500020F007022A60D2E9000108322A60CDE9AE
:101960000001002902D505982D210AE0BDF83800B4
:10197000810702D505982B2103E0C00705D50598FE
:10198000202100F80A10401C059011A8059908189C
:1019900003902146684600F0E5F980E09DF83A00A2
:1019A0006C280DD0712818BF6A2809D12868C01D7D
:1019B00020F007022A60D2E9000108322A6005E01F
:1019C0002968296051F8040B29600021CDE9000144
:1019D0009DF83A00682803D1DDE9000180B20BE0F0
:1019E000622803D1DDE90001C0B205E0742818BF08
:1019F0007A2804D1DDE900010021CDE900019DF83C
:101A0000380000072ED5DDE90001002908BF0028B5
:101A100028D044F02000782824D10598302100F8FF
:101A20000A10401C411C059100F80A401AE09DF87C
:101A30003A00294600F0DCF8CDE90001002902DA7D
:101A400005982D210AE0BDF83800810702D50598D8
:101A50002B2103E0C00705D50598202100F80A10C6
:101A6000401C059011A80599081803902146684666
:101A700000F0F5F813E0012005902868286050F880
:101A8000041B28608DF8441009E025208DF84400DF
:101A9000012005901CB18AF80140022005900D98A4
:101AA0000599401A0899401A0699401A0999401A4E
:101AB0000799401A0A99441A9DF83800400710D433
:101AC00020208DF84000002609E0012310AA694675
:101AD000404600F0AAFB002840F08580761CA64214
:101AE000F3DB059E0DF1440B0AE01BF8011B029885
:101AF000C0470028029076D00B98401C0B90761EB1
:101B0000002EF2D130208DF840004FF0000B089EDF
:101B100009E0012310AA6946404600F086FB002830
:101B200061D10BF1010BB345F3DB069EDDF80CB080
:101B30000AE01BF8011B0298C0470028029052D00F
:101B40000B98401C0B90761E002EF2D130208DF8A1
:101B500040004FF0000B099E09E0012310AA6946DE
:101B6000404600F062FB00283DD10BF1010BB3456C
:101B7000F3DB03980699079E01EB000B09E01BF8C5
:101B8000011B0298C047029068B30B98401C0B9051
:101B9000761E002EF3D130208DF840004FF0000B60
:101BA0000A9E08E0012310AA6946404600F03DFB6A
:101BB000C8B90BF1010BB345F4DB9DF838004007C1
:101BC0007FF56FAD20208DF84000002600E0761CE8
:101BD000A642BFF666AD012310AA6946404600F052
:101BE00024FB0028F3D04FF0FF3021B0BDE8F08F88
:101BF000622826D068281DD06A2808D06C2827D0F3
:101C0000712804D0742823D07A280CD020E00868EA
:101C1000C01D20F007000860D0E9002308300860EC
:101C20001946104670470A680A6052F8040B0A60A9
:101C3000002170470A680A6052F8040B0A6000B27B
:101C40000BE00A680A6052F8040B0A6040B204E034
:101C50000A680A6052F8040B0A60C11770472DE940
:101C6000FA4E05460A462F696F2A08BF082405D098
:101C700041F02000782814BF0A2410243C26D5E91E
:101C80000001642A18BF692A81468A4605D10029C5
:101C900003DAD9F100096AEB4A0ABAF1000F08BF6A
:101CA000B9F1000F0CD1286B50B9082C36D195F83A
:101CB0003800000732D530203B2687F83B002DE066
:101CC000E31748465146224600F028FBA4FB0023B8
:101CD000A9EB02023032D2B2A6F1010B3A2A5E46DB
:101CE00003DB9DF80030513B9A180BF80720814622
:101CF0005FEA010A08BFB9F1000F03D0E868F119E3
:101D00008842DDD3082C09D195F83800000705D5A5
:101D1000F05D302802D0761E3020F055C6F13C0030
:101D2000A861F119E960296B884208DA081A28626B
:101D30004FF6EF71288F08402887BDE8F38E002901
:101D40000ED595F8381001F01401102908D1696BEF
:101D50006A69891A2A6A891A0E1A012EA8BF2E6288
:101D6000BDE8F38E2DE9F34F8BB0D0E90089006B0D
:101D7000002801AF48BF062005D404BF41F0200071
:101D8000672802D101200B99086340F2FF720B987B
:101D90004168C1F30A50904220D1080302BF0B985A
:101DA000006800280AD10B99032088619DF8300053
:101DB00061381A2858D30FF2B44109E00B99032077
:101DC00088619DF8300061381A284AD30FF2944197
:101DD0000B98C068032200F019FB00E1012807DA24
:101DE0000B9800F04EFB012802DB00230026EDE0FB
:101DF0000B9ADFF854B1526840F2FE3161F31E5283
:101E00000B994A6040F2FE31461A4046494600228C
:101E1000002300F057FB38BF89F0004936B247F283
:101E200097507043494990FBF1F636B2C6F1070767
:101E3000012F92461BDBF80707D552465B4640460A
:101E4000494600F057FB804689465046594652465F
:101E50005B467F1000F04EFB002F82468B46EAD196
:101E600026E00FF2FC31B3E70FF2FC31B0E77F421E
:101E70000024374D12E0F80707D552465B4620464E
:101E8000294600F037FB04460D4650465946524657
:101E90005B4600F02FFB7F1082468B46002FEAD175
:101EA0004046494622462B4600F0F6FB80468946CE
:101EB0009DF83000DFF89CB040F02005662D0CBF87
:101EC00006F10A0006200B99096B4718142FA8BFCA
:101ED000132730208DF804000DF10504012F3BDBA2
:101EE0004046494600F01AFD014604F10802042369
:101EF0004FF00A0CB1FBFCFC0CEB8C04A1EB440191
:101F0000303102F8011C0A21BCFBF1FE0EEB8E04FD
:101F1000ACEB440430345B1E714602F8024DE7D14D
:101F2000083F012F02F10804D8DB00F00DFD024646
:101F30000B464046494600F015FD00225B4600F086
:101F4000D9FA80468946CBE700002440A0860100EC
:101F50000000F03F84D797410DF10500201A0DF1E4
:101F6000050702E0401E761E7F1C39783029F9D023
:101F7000662D02D136B2711C03E0652D0CBF012124
:101F800000210B9A126B8B181BB29842B8BF034604
:101F90001BB219001AD4814204DAC85D3528A8BFE3
:101FA000392000DA3020CA19521E00E05B1E12F8F8
:101FB0000159491E8542F9D0392802D1C85D401C1B
:101FC000C855002902D57F1E5B1C761C36B29DF8D1
:101FD00030100B9800961BB23A4600F003F80DB093
:101FE000BDE8F08F2DE9F043054685B01E46D5F8D3
:101FF0003080012E8946174602DA01260FF270273B
:1020000049F02000BDF93040662808BF641C15D097
:10201000672840F0938014F1040F7CDB44457ADAA2
:1020200095F83800641C000702D44645B8BFB04696
:1020300024B2B8EB040848BF4FF0000824B2E868A7
:10204000A969012C25DA4A1C30230B54B8F1010F81
:1020500003DA95F83810090702D52E211154521CC5
:10206000AA6118EB040FB8BFC8F1000424B26142A2
:10207000A0446962B045B8BF4646AB6936B2EE616E
:1020800032463946181800F0C1F9A8EB0600A862DC
:10209000B4E00818A64218DA3246394600F0B6F91C
:1020A000A9697118A01BB8F1010FA961686203DA70
:1020B00095F83800000705D5EA682E208854E869AD
:1020C000401CE861C5F8288098E02246394600F0B7
:1020D0009DF9A8692018361BB8F1010F03DA95F8AD
:1020E0003810090703D5EA682E218154401C36B206
:1020F000A861B045B8BF4646E868AB6936B232461B
:10210000E119181800F082F9A8693018A861A8EB45
:102110000600686272E0464504DA95F8381009074F
:1021200058BFB046B8F1010848BF4FF00008B9F1F8
:10213000670F0CBF4FF065094FF04509A969E868C2
:102140004A1CAA61B8F1010F17F8013B0B5403DADE
:1021500095F83810090717D5531CAB612E2111547F
:10216000B8F1010F10DB761E36B2B045B8BF464657
:1021700036B232463946181800F048F9A8693018C6
:10218000A861A8EB06006862E868A9690918200040
:1021900081F8009003D42B2048708F1C03E02D227F
:1021A0004A708F1C644200260DF1080808E00A22DC
:1021B000684600F097FC019808F8010B761C009C1B
:1021C00021B20129F3DA022E06DA49F0200065284F
:1021D00004BF302007F8010B4EB9302007F8010B7F
:1021E00007E0761E02A8305C303007F8010B012EA4
:1021F000F7DAE868A9690818381AE86195F838002C
:1022000000F0140010280DD16869A9690818696ADE
:102210000818E9690818A96A0818696B8842BCBFE0
:10222000081A286205B0BDE8F083F8B504460D46EB
:1022300016461F46002004E0E86A401CE8627F1E44
:10224000002047B116F8011BA868A0470028A86025
:10225000F2D14FF0FF30F2BD686A6C747A4C000026
:102260006E616E004E414E00696E6600494E46003A
:10227000300000000278C9B28A421AB11CBF10F8BF
:10228000012FF9E718BF00207047000000F101039B
:10229000810704D010F8011B89B18107FAD10268C7
:1022A000B2F10131914311F0803F04BF50F8042F87
:1022B000F6E710F8011B11B110F8011BFBE7C01A7B
:1022C00070470000C9B2830706D0521E22D310F80F
:1022D000013B9942F7D11FE0083A13D302F10402FF
:1022E00041EA012141EA014150F8043B121F21BF9C
:1022F0004B40A3F1013C2CEA030C1CF0803FF3D0CF
:10230000C9B2001F083210F8013B521E28BF91EAE3
:10231000030FF8D818BF0120401E70471B4213D18D
:10232000094236D12AB18446B0FBF2F002FB10C25A
:10233000704700F0DFBBFCD30022002370470B0086
:102340000200002100207047904271EB030CF6D38D
:1023500070B5B1FA81F4B3FA83F52C1BA340C4F134
:10236000200532FA05F63343A2405FF00046E6400E
:1023700002E05B085FEA3202841A71EB030524BFB6
:10238000204629467641F4D302000B00300000219C
:1023900070BD012ACFD970B5140C20D0B1FA81F4E8
:1023A000B2FA82F5C4F120046419B4F12006D6D340
:1023B000B2405FF00044F440002502E052085FEABA
:1023C0003303C61A71EB020E24BF304671466441D6
:1023D0006D41F3D302000B002000290070BD0C46B4
:1023E000B1FBF2F102FB11452D0445EA1045B5FBA6
:1023F000F2F402FB145580B240EA0545B5FBF2F059
:1024000002FB105240EA044070BD000062B38B072B
:1024100008D0521E11F8013B00F8013B00F0248067
:102420008B07F6D1830740F0208000BF103A07D316
:1024300030B4B1E83810103AA0E83810F9D230BC06
:10244000530724BFB1E80810A0E8081044BF51F8B2
:10245000043B40F8043BD20724BF31F8022B20F89C
:10246000022B44BF0B7803707047083A07D3B1E8DA
:102470000810083A40F8043B40F804CBF7D2530761
:10248000E4E730B4436803F0004201211B031B0B57
:10249000436004BF0368002B08D10DE00368DD0F23
:1024A00045EA440444605B000360491E4468E3025B
:1024B000F4D523031B0B436043681A43426008466C
:1024C00030BC70474FF4001C1CEB410F94BF1CEB59
:1024D000430F09E041EA030C50EA4C0C52EA0C0CA1
:1024E00003D2994208BF9042704714BF8B42824288
:1024F00070470000B0B581EA030C0CF0004C40F2CC
:10250000FF7515EA11541DBF15EA1357AC42AF42CF
:1025100039E0E41923EA455343F48013C90241F03A
:10252000004141EA505EC7021100A7FB02020028E9
:102530004FF00000EEFB01204FF00001E3FB07210C
:1025400018BF42F00102401800214941E3FB0E018F
:10255000A4F580640F0302D252004041494154F176
:1025600001046CDD470872F1004250F1000051EBAC
:102570000451A1F580115CBF41EA0C01B0BD4CEAE9
:1025800005510020B0BD05EA1357AC4214BFAF425D
:1025900041E050EA410E1CBF52EA430E02E06146A0
:1025A0000020B0BD24423C441BD15FEA070EF6D0A8
:1025B000090302BF01460020AEF1140EB1FA81F703
:1025C000AEEB070401FA07FE0C37C7F1200100FA51
:1025D00007F7C8404EEA000E23EA455343F4801340
:1025E000A2E733F00043B3FA83F704BFB2FA82FEE6
:1025F00077440B3FE41BB7F1200E2FBF02FA0EF316
:10260000BB40C7F1200E22FA0EFE38BF43EA0E038C
:10261000BA40641C82E750EA410E14BF52EA430EEE
:102620006FF000014FF4001717EB430F8ABF1946F4
:1026300017EB410FB5E74CEA05510020B0BDD4F1CE
:102640000104B4F120070FDAC4F12007520828BFB3
:1026500042F0010210FA07F501FA07F7E1BF2A4339
:10266000E0403843E1400FE0352C98DCC7F120040E
:1026700052EA400220FA07F218BF42F0010231FA92
:1026800007F0A1400A43002172F1004250F100001E
:1026900051EB0C01B0BD00002DE9F04140F2FF7597
:1026A00081EA030C0CF0004C15EA11541DBF15EA29
:1026B0001357AC42AF42E9E0BC41C1F31301C3F38D
:1026C0001303801A994143F4801304D2641E40001E
:1026D000494180185941C90241EA5051B1FBF3F612
:1026E00003FB1611A2FB0675D7EBC020A94102D24D
:1026F000761E80185941C90241EA5051B1FBF3FEE0
:1027000003FB1E11A2FB0E75D7EBC020A94103D21B
:10271000AEF1010E80185941890241EA90517605C7
:1027200046EA8E2EB1FBF3F603FB1611A2FB0675EB
:10273000D7EB8020A94102D2761E80185941C902E8
:1027400041EA50514EEA060EB1FBF3F603FB1611B7
:10275000A2FB0675D7EBC020A94102D2761E8018D5
:102760005941C90241EA5051B1FBF3F703FB17117C
:10277000A2FB0735D3EBC020A94167F100070CBFCE
:10278000004247F0010766F3D5274FEA1E31B8082B
:1027900014F5806414DDBD0775F1004250EB0E5056
:1027A00051EB045111F5801F5CBF41EA0C01BDE8FB
:1027B000F0814CF07F6141F0E0410020BDE8F08104
:1027C000BD076D0840EA0E5041F48011D4F10104B8
:1027D000B4F120060ADAC4F120060200E04001FA52
:1027E00006F3E1401843B24015430EE0342C14DCEC
:1027F000C6F1200445EA40056D0820FA06F21543AB
:1028000021FA06F0A1400D43002175F1004250F17C
:10281000000051EB0C01BDE8F08100205FEA0C01E3
:10282000BDE8F081CFB992185B41B3FA83F704BFDA
:10283000B2FA82F6BF190B3FB7F120062FBF02FA9A
:1028400006F3BB40C7F1200622FA06F638BF334331
:10285000BA401CB1E419641E2FE77F4231F00041F9
:10286000B1FA81F404BFB0FA80F6A4190B3CB4F1BC
:1028700020062FBF00FA06F1A140C4F1200620FA7D
:1028800006F638BF3143A0403C1B16E7AC421ABFE6
:1028900005EA1357AF4214E050EA41061CBF52EA62
:1028A0004306BFE750EA4107304661461CBF41EA94
:1028B0000551BDE8F08152EA430C08BFC143BDE8B1
:1028C000F08100204FF4001616EB410F98BF16EB75
:1028D000430F08BF16EB410F24BFC14305E016EBC1
:1028E000430F0CBF61464CEA0551BDE8F081000082
:1028F000F446400D40EAC120490006D200F014F829
:10290000004248BF6FF00040604700F00DF84FF004
:10291000004188428CBF084640426047400D40EA73
:10292000C120490080F00D8040F00040490DA1F524
:102930008061491C05D4D1F11F0154BFC840C017A4
:1029400070474FF000007047010000BF09D0B0FA97
:1029500080F18840C91CC1F58461090501EBD021D3
:1029600040057047F0B44FF0004591EA030F44BFB3
:102970006B4000F0C1B800BF841A71EB030604D2AB
:102980006E40001BB141121973414FF4001C1CEB47
:10299000410F34BF7CEB430684E00C0DA4EB1356CF
:1029A000362E7DDC012E43DC45EAC32343EA525335
:1029B00012BFD20292025B08240545EAC12141EA16
:1029C0005051D2EBC020994125D407D1B0FA80F6FE
:1029D00010FA06F164D00020203608E0B1FA81F642
:1029E000B140C6F1200220FA02F21143B0404FEA92
:1029F000F474B4EB465434F001064FEA74040AD878
:102A0000D6F50016760D04F00044F04061FA06F2A7
:102A10005040F1404840C00A40EA415021F0004196
:102A200028BF5FEA500550F1000044EBD12137E0A8
:102A300045EAC323DB0A45EAC121C90AB6F12005EC
:102A40000EDD42EA0242120CC5F1200603FA06F638
:102A5000EB4042EA06056D42984161F100010DE04C
:102A600062FA06F5F240554063FA06FC82EA0C026F
:102A7000F3405A406D42904161EB030111F4801F15
:102A800005D1641E620502D06D004041494121F428
:102A90008011430875F1004350F1000041EB0451EF
:102AA000F0BC70471CEB410F15D223F0004352EAF3
:102AB00043060BD04FEA4C0CBCEB410F04D80C0D75
:102AC000661E342EB7DDEBE7801A994150EA4106C5
:102AD00008BF0021E4E708BF1CEB430F28BF6FF0DD
:102AE0000001DDE791FBF2F303FB1211C0E90031B5
:102AF0007047000070470000841A71EB030603D290
:102B0000001BB141121973414FF4001C1CEB410F23
:102B100034BF7CEB430443E00C0DA4EB1356352E7D
:102B200050DC45EAC323DB0A45EAC121C912B6F1EC
:102B300020050DDD63FA05F6EB4086EA0305124237
:102B400018BF45F00105C01851F100010CD213E087
:102B500062FA06F5F2405540F3415A40B340F34063
:102B60005A408018594107D349085FEA30005FEAAC
:102B7000350528BF45F0010501F58011420875F1C2
:102B8000004250F1000041EB0451F0BC4FF4001C36
:102B90001CEB410F38BF70470020090D0905704735
:102BA0001CEB410F10D252EA43060BD0BCEB410F95
:102BB00005D80C0DAB43661E342EB5DD02E0AB43E9
:102BC00080185941F0BC7047F0BC704710B5040044
:102BD000E4B2002C05D0022C18D00DD3032C1FD04A
:102BE00029E00B220921002000F074FD08220A21AF
:102BF000002000F06FFD1EE00B220221002000F0FB
:102C000069FD08220321002000F064FD0B220A2147
:102C1000012000F05FFD08220B21012000F05AFD89
:102C20000B220A21022000F055FD08220B21022070
:102C300000F050FDFFE710BD10B50400E4B2002C19
:102C400005D0022C19D00DD3032C21D02BE0362136
:102C50000FF6E10000F068FF15210FF6991000F063
:102C600063FF20E037210FF6FD0000F05DFF182123
:102C70000FF6A11000F058FF15E038210FF61510DF
:102C800000F052FF13210FF6AD1000F04DFF0AE0E7
:102C900044210FF6311000F047FF1D210FF6B5104B
:102CA00000F042FFFFE710BD2DE9F84306000F00DA
:102CB000F6B2002E05D0022E15D00BD3032E1BD05A
:102CC00022E0DFF8B009006850F48040DFF8A41972
:102CD000086019E0DFF8A009006850F40030DFF860
:102CE0009819086010E0DFF89009006850F480201F
:102CF000DFF88419086007E0DFF87C09006850F409
:102D00000020DFF874190860DFF87009F6B250F897
:102D1000260080894EF6FF710840DFF86019F6B290
:102D200051F826108881DFF85409F6B250F82600D1
:102D300080894FF6FF310840DFF84019F6B251F8AC
:102D400026108881DFF83409F6B250F82600808911
:102D500050F00800DFF82419F6B251F826108881E7
:102D6000DFF81809F6B250F82600808950F0040008
:102D7000DFF80819F6B251F826108881DFF8FC0850
:102D8000F6B250F82600008A4CF6FF710840DFF8D2
:102D9000EC18F6B251F826100882DFF8E008F6B217
:102DA00050F82600808A50F08000DFF8D018F6B284
:102DB00051F826108882DFF8C408F6B250F82600D1
:102DC000808A50F04000DFF8B418F6B251F82610AF
:102DD0008882DFF8A808F6B250F8260080894FF6FE
:102DE000BF710840DFF89418F6B251F826108881B8
:102DF000DFF88808F6B250F8260080894FF6DF71B8
:102E00000840DFF87818F6B251F826108881DFF80C
:102E10006C08F6B250F82600808950F01000DFF8F8
:102E20005C18F6B251F82610888102220221DFF8E0
:102E30005008F6B2305601F0B2FAF6B2002E03D1C5
:102E4000DFF84008016803E0DFF83808006841084F
:102E5000F6B2002E03D1DFF82C08006803E0DFF89B
:102E6000240800684008F6B2002E04D1DFF81428C8
:102E7000D2F8008004E0DFF80C2812685FEA5208FC
:102E80003A01B1FBF2F9FFF75FFD04000D003800D5
:102E9000FFF75AFD0022DFF8F037FFF72BFB0200A7
:102EA0000B0020002900FFF7F7FB04000D0038019C
:102EB000B8FBF0F080B2FFF747FD02000B002000E6
:102EC0002900FFF74FFD0022DFF8BC37FFF712FBA8
:102ED000FFF70EFDC0B250EA0910DFF8A017F6B2F6
:102EE00051F826100881DFF89407F6B250F8260052
:102EF000808950F40050DFF88417F6B251F826109C
:102F00008881BDE8F1831FB504006846DFF87C17AF
:102F10001022FFF78BFAE4B2032C08D0DFF8700719
:102F2000006850F00100DFF86817086007E0DFF87C
:102F30006007006850F00200DFF854170860DFF8FF
:102F40005407E4B250F82400006830F48040DFF801
:102F50004417E4B251F824100860DFF83807E4B2EF
:102F600050F82400006830F44050DFF82817E4B22D
:102F700051F824100860DFF81C07E4B250F8240070
:102F8000006850F48050DFF80C17E4B251F82410B8
:102F90000860DFF80007E4B250F82400006830F45D
:102FA0004060DFF8F016E4B251F824100860DFF852
:102FB000E406E4B250F824000068DFF8D816E4B262
:102FC00051F824100860DFF8CC06E4B250F8240071
:102FD000006830F44070DFF8BC16E4B251F82410F9
:102FE0000860DFF8B006E4B250F824000068DFF8AB
:102FF000A416E4B251F824100860DFF89806E4B291
:1030000050F82400006850F08000DFF88816E4B221
:1030100051F824100860DFF87C06E4B250F8240070
:10302000006830F04000DFF86C16E4B251F824106C
:103030000860DFF86006E4B250F82400006830F061
:103040002000DFF85016E4B251F824100860DFF8D1
:103050004406E4B250F82400006830F01000DFF8B5
:103060003416E4B251F824100860DFF82806E4B200
:1030700050F82400006830F00800DFF81816E4B2B9
:1030800051F824100860DFF80C06E4B250F8240070
:10309000006830F00400DFF8FC15E4B251F82410A9
:1030A0000860DFF8F005E4B250F82400006830F062
:1030B0000200DFF8E015E4B251F824100860DFF8F0
:1030C000BC05E4B250F82400001DDFF8C815E4B2D6
:1030D00051F8241088606846E4B250F82400DFF804
:1030E000B415E4B251F82410C8604FF40070DFF852
:1030F000A415E4B251F824104860DFF89805E4B252
:1031000050F82400006850F00100DFF88815E4B2A0
:1031100051F8241008601FBD10B50400E4B2032C60
:1031200008D0DFF86C05006850F00100DFF860158A
:10313000086007E0DFF85805006850F00200DFF88B
:1031400050150860DFF85005E4B250F8240000681C
:1031500030F48040DFF84015E4B251F824100860E4
:10316000DFF83405E4B250F82400006830F4405031
:10317000DFF82415E4B251F824100860DFF81805D0
:10318000E4B250F82400006850F48050DFF80815CD
:10319000E4B251F824100860DFF8FC04E4B250F8FF
:1031A0002400006830F44060DFF8EC14E4B251F819
:1031B00024100860DFF8E004E4B250F8240000684E
:1031C000DFF8D414E4B251F824100860DFF8C80422
:1031D000E4B250F82400006830F44070DFF8B8140E
:1031E000E4B251F824100860DFF8AC04E4B250F8FF
:1031F00024000068DFF8A014E4B251F8241008603D
:10320000DFF89404E4B250F82400006850F0800025
:10321000DFF88414E4B251F824100860DFF8780471
:10322000E4B250F82400006830F04000DFF8681481
:10323000E4B251F824100860DFF85C04E4B250F8FE
:103240002400006830F02000DFF84C14E4B251F89C
:1032500024100860DFF84004E4B250F8240000684D
:1032600050F01000DFF83014E4B251F82410086078
:10327000DFF82404E4B250F82400006830F00800BD
:10328000DFF81414E4B251F824100860DFF80804E1
:10329000E4B250F82400006830F00400DFF8F813BE
:1032A000E4B251F824100860DFF8EC03E4B250F8FF
:1032B0002400006850F00200DFF8DC13E4B251F89B
:1032C0002410086002220221DFF8D003E4B2205665
:1032D00001F065F8DFF8A403E4B250F82400001D03
:1032E000DFF8B413E4B251F824108860DFF8A803C3
:1032F000E4B250F82400006840084000DFF898135A
:10330000E4B251F82410086010BDDFF88813C0B291
:1033100051F82010096849084900DFF87823C0B245
:1033200052F8202011604FF40071DFF86823C0B21A
:1033300052F820205160DFF85C13C0B251F8201021
:10334000096851F00101DFF84C23C0B252F8202087
:103350001160704770B504000D00E4B2042C26DA49
:103360002000C0B2FFF768FC4FF400730122DFF8C1
:103370003003E4B24FF4007101FB0401DFF82403D1
:10338000E4B2142606FB040001F076F82000C0B277
:10339000FFF71CFC29002000C0B2FFF785FC2000CD
:1033A000C0B2FFF7B0FD2000C0B2FFF7B5FE70BDA0
:1033B00070B504000D00160032002900B948E4B2CF
:1033C000142303FB040001F0BCF870BD00607047DB
:1033D0000268824201D00068FAE701607047F8B5E0
:1033E000040000252068A04201D0206805000826BE
:1033F00000273A003100200001F0FCF82000FDF722
:1034000082FE2800F2BD01000020C9B2002905D0CB
:10341000022909D005D3032909D00BE0A24A1000E4
:1034200008E0A24A100005E0A14A100002E0A14A0B
:103430001000FFE7704710B4904BC0B253F8203033
:103440001B885B06F8D5944BC0B253F820301B683C
:103450005B085B00904CC0B254F8204023608E4B58
:10346000C0B253F82030D9608B4BC0B253F8203033
:103470005A60894BC0B253F820301B6853F00103E7
:10348000854CC0B254F82040236010BC704738B55A
:1034900004002000C0B2FFF7B6FF050028684268AC
:1034A000286810F108012000C0B2FFF7C4FF31BD49
:1034B0002DE9F84304000D00160000272000C0B2DB
:1034C000FFF7A1FF804616F10800FDF7C1FC0700D9
:1034D000002FF8D03800FFF779FF17F10809320004
:1034E00029004846FEF792FF7E60B8F1000F0FD02A
:1034F000D8F80000002805D03900D8F80000FFF700
:1035000067FF05E0C8F800702000C0B2FFF7BFFFFA
:10351000BDE8F18370B504000D000026705D002841
:1035200001D0761CFAE7320029002000C0B2FFF774
:10353000BFFF70BD10B5514800680088C00610D5A7
:103540004E4800688088534800684068D0F5007491
:103550000020FFF7DAFEA4B222005749514800F0DC
:1035600097FF10BD10B5454840680088C00610D5CB
:10357000424840688088474840684068D0F50074F9
:103580000120FFF7C2FEA4B222004C494C4800F0D3
:103590007FFF10BD10B5394880680088C00610D57F
:1035A0003648806880883B4880684068D0F5007461
:1035B0000220FFF7AAFEA4B222004249424800F0CE
:1035C00067FF10BD10B52D48C0680088C00610D533
:1035D0002A48C06880882F48C0684068D0F50074C9
:1035E0000320FFF792FEA4B222003849384800F0C9
:1035F0004FFF10BD80B52C480068FFF7F0FE2A4948
:10360000086029480068002802D00020FFF73FFF2B
:1036100001BD000080B525480068FFF7E0FE2349A2
:10362000086022480068002802D00120FFF72FFF21
:1036300001BD000080B51E480068FFF7D0FE1C49A0
:1036400008601B480068002802D00220FFF71FFF17
:1036500001BD000080B517480068FFF7C0FE15499E
:10366000086014480068002802D00320FFF70FFF0D
:1036700001BD0000181002401C1002406C5D0008E3
:10368000D85D0008D8000020000030409C5D000894
:10369000141002407C5D00088C5D0008DC5D0008B1
:1036A000E4000020E41300201C1500202015002059
:1036B0002415002028150020E4080020E40A00203A
:1036C000F8130020E40C00200C140020E40E00206D
:1036D0002014002030B4814B1B680124851CAC40B1
:1036E00023437E4C236089B2082963DA7C4B80B285
:1036F00053F820301B680F240D00EDB2AD00AC4034
:10370000A343774C80B254F820402360D2B2082AF9
:103710001DD1734B80B253F820301B6808240D0074
:10372000EDB2AD00AC4023436D4C80B254F8204064
:1037300023606B4B80B253F82030DB6801248C404F
:103740002343674C80B254F82040E36099E0D2B242
:103750000C2A1DD1624B80B253F820301B6808241C
:103760000D00EDB2AD00AC4023435D4C80B254F887
:10377000204023605A4B80B253F82030DB6801248C
:103780008C40A343564C80B254F82040E36078E06C
:10379000534B80B253F820301B68D2B20C00E4B215
:1037A000A40012FA04F423434D4C80B254F8204094
:1037B000236066E04A4B80B253F820305B680F24E8
:1037C0000D00083DEDB2AD00AC40A343444C80B2C7
:1037D00054F820406360D2B2082A1ED1404B80B218
:1037E00053F820305B6808240D00083DEDB2AD00B1
:1037F000AC4023433A4C80B254F820406360384BCD
:1038000080B253F82030DB6801248C402343344CD1
:1038100080B254F82040E36033E0D2B20C2A1ED1CB
:103820002F4B80B253F820305B6808240D00083D10
:10383000EDB2AD00AC402343294C80B254F8204097
:103840006360274B80B253F82030DB6801248C4042
:10385000A343234C80B254F82040E36011E0204B96
:1038600080B253F820305B68D2B20C00083CE4B25E
:10387000A40012FA04F42343194C80B254F82040F7
:10388000636030BC704710B4D2B2002A0DD0144B24
:1038900080B253F820301B6901248C402343104C24
:1038A00080B254F8204023610CE00D4B80B253F8F5
:1038B00020305B6901248C402343094C80B254F8CA
:1038C0002040636110BC7047054A80B252F8200066
:1038D0008068C84010F001007047000018100240D6
:1038E000FC5C000838B504000D000422290089B2F0
:1038F000200080B2FFF7EEFE31BD38B504000D00A8
:103900000322290089B2200080B2FFF7E3FE31BD17
:103910007047DFF8E808DFF840180860DFF8DC08D7
:10392000DFF834184860DFF8D408DFF82C18886016
:10393000DFF8C808DFF82018C860DFF8C008DFF833
:1039400018180861DFF8B408DFF80C184861DFF8D0
:10395000AC08DFF804188861DFF8A008DFF8F81772
:10396000C861DFF89808DFF8F0170862DFF88C0804
:10397000DFF8E4174862DFF88408DFF8DC178862B4
:10398000DFF87808DFF8D017C862DFF87008DFF8D2
:10399000C8170863DFF86408DFF8BC174863DFF86E
:1039A0005C08DFF8B4178863DFF85008DFF8A81761
:1039B000C863DFF84808DFF8A0170864DFF83C08A0
:1039C000DFF894174864DFF83408DFF88C17886450
:1039D000DFF82808DFF88017C864DFF82008DFF870
:1039E00078170865DFF81408DFF86C174865DFF80A
:1039F0000C08DFF864178865DFF80008DFF858174F
:103A0000C865DFF8F807DFF850170866DFF8EC073D
:103A1000DFF844174866DFF8E407DFF83C178866EC
:103A2000DFF8D807DFF83017C866DFF8D007DFF80F
:103A300028170867DFF8C407DFF81C174867DFF8A6
:103A4000BC07DFF814178867DFF8B007DFF808173E
:103A5000C867DFF8A807DFF80017C1F88000DFF8B3
:103A60009C07DFF8F416C1F88400DFF89007DFF850
:103A7000E816C1F88800DFF88407DFF8DC16C1F823
:103A80008C00DFF87807DFF8D016C1F89000DFF877
:103A90006C07DFF8C416C1F89400DFF86007DFF8A0
:103AA000B816C1F89800DFF85407DFF8AC16C1F873
:103AB0009C00DFF84807DFF8A016C1F8A000DFF887
:103AC0003C07DFF89416C1F8A400DFF83007DFF8F0
:103AD0008816C1F8A800DFF82407DFF87C16C1F8C3
:103AE000AC000020102809DADFF81017DFF868268C
:103AF00012EB8002C2F8B010401CF3E7002002284D
:103B000011DA002107290CDADFF84C261C2303FB0D
:103B1000002212EB8102DFF8E436C2F8F030491CD3
:103B2000F0E7401CEBE770470200002A00F08681B6
:103B3000002900F0B280022900F0B780C0F0B18007
:103B4000042900F0B280C0F0B080062900F0AD80FA
:103B5000C0F0AB80082900F0A880C0F0A6800A2938
:103B600000F0A380C0F0A1800C2900F09E80C0F07E
:103B70009C800E2900F09980C0F09780102900F0F9
:103B80009480C0F09280122900F09680C0F08D8061
:103B9000142900F09180C0F08F80162900F08C80ED
:103BA000C0F08A80182900F08780C0F085801A292B
:103BB00000F08980C0F087801C2900F08480C0F06C
:103BC00082801E2900F086807DD3202900F08A8023
:103BD000C0F08480222900F08D80C0F087802429E5
:103BE00000F09080C0F08A80262900F09380C0F019
:103BF0008D80282900F09680C0F090802A2900F05E
:103C00009980C0F093802C2900F09C80C0F09680B1
:103C10002E2900F09F80C0F09980302900F0A2800A
:103C2000C0F09C80322900F0A580C0F09F8034292C
:103C300000F0A880C0F0A280362900F0AB80C0F070
:103C4000A580382900F0AE80C0F0A8803A2900F0A5
:103C5000B180C0F0AB803C2900F0B480C0F0AE80F1
:103C60003E2900F0B980C0F0B280402900F0BE804B
:103C7000C0F0B780422900F0C380C0F0BC80442966
:103C800000F0C880C0F0C180462900F0CD80C0F0AF
:103C9000C680472900F0CD80D0E0DFF8BC2410605A
:103CA000CCE0DFF8B4245060C8E0DFF8AC2412EBBD
:103CB0008102C2F8A800C1E0DFF89C2412EB810267
:103CC000C2F8A800BAE0DFF8902412EB8102C2F833
:103CD000A800B3E0DFF880249060AFE0DFF878243C
:103CE000D060ABE0DFF870241061A7E0DFF8682453
:103CF0005061A3E0DFF8602490619FE0DFF8582472
:103D0000D0619BE0DFF85024106297E0DFF8482490
:103D1000506293E0DFF8402490628FE0DFF83824AF
:103D2000D0628BE0DFF83024106387E0DFF82824CE
:103D3000506383E0DFF8202490637FE0DFF81824ED
:103D4000D0637BE0DFF81024106477E0DFF808240C
:103D5000506473E0DFF8002490646FE0DFF8F8232C
:103D6000D0646BE0DFF8F023106567E0DFF8E8234C
:103D7000506563E0DFF8E02390655FE0DFF8D8236B
:103D8000D0655BE0DFF8D023106657E0DFF8C8238A
:103D9000506653E0DFF8C02390664FE0DFF8B823A9
:103DA000D0664BE0DFF8B023106747E0DFF8A823C8
:103DB000506743E0DFF8A02390673FE0DFF89823E7
:103DC000D0673BE0DFF89023C2F8800036E0DFF8F0
:103DD0008823C2F8840031E0DFF87C23C2F8880031
:103DE0002CE0DFF87423C2F88C0027E0DFF86823AA
:103DF000C2F8900022E0DFF86023C2F894001DE0D2
:103E0000DFF85423C2F8980018E0DFF84C23C2F81A
:103E10009C0013E0DFF84023C2F8A0000EE0DFF8BA
:103E20003823C2F8A40009E0DFF82C23C2F8A80068
:103E300004E0DFF82423C2F8AC00FFE7704780B548
:103E4000C54800688047C4484068804701BD80B5C8
:103E5000DFF878040068C0070BD5DFF8700400684D
:103E600050F00100DFF864140860BB48D0F8B000DF
:103E7000804701BD80B5DFF85404006880070BD58A
:103E8000DFF84804006850F00200DFF840140860D2
:103E9000B148D0F8B400804701BD80B5DFF82C04EC
:103EA000006840070BD5DFF82404006850F00400D8
:103EB000DFF818140860A848D0F8B800804701BDA2
:103EC00080B5DFF80804006800070BD5DFF8FC03B5
:103ED000006850F00800DFF8F41308609E48D0F83E
:103EE000BC00804701BD80B5DFF8E0030068C00674
:103EF0000BD5DFF8D803006850F01000DFF8CC13C2
:103F000008609548D0F8C000804701BD10B5052471
:103F1000092C16DADFF8B4030068E040C0070ED5BC
:103F2000DFF8A80300680121A1400843DFF89C13D3
:103F30000860894810EB8400D0F8B0008047641C0A
:103F4000E6E710BD10B50A240F2C16DADFF87C0363
:103F50000068E040C0070ED5DFF87003006801215B
:103F6000A1400843DFF8641308607B4810EB84002D
:103F7000D0F8B0008047641CE6E710BD80B5DFF8DC
:103F80005003006880070BD5DFF84803006850F045
:103F90000100DFF8401308606F48D0F8F000804758
:103FA00001BD80B5DFF82803006880060BD5DFF877
:103FB0002403006850F01000DFF81813086066480A
:103FC000D0F8F400804701BD80B5C1480068800585
:103FD00009D5C048006850F48070BE4908605E484A
:103FE000D0F8F800804701BD80B5B948006880046A
:103FF00009D5B848006850F48050B6490860564862
:10400000D0F8FC00804701BD80B5B148006880034E
:1040100009D5B048006850F48030AE4908604E4879
:10402000D0F80001804701BD80B5A9480068800232
:1040300009D5A848006850F48010A6490860464891
:10404000D0F80401804701BD80B5A1480068800117
:1040500009D5A048006850F080709E4908603E482D
:10406000D0F80801804701BD80B59B4800688007F3
:1040700009D59A48006850F0010098490860364810
:10408000D0F80C01804701BD80B5934800688006D8
:1040900009D59248006850F01000904908602E48F9
:1040A000D0F81001804701BD80B58B4800688005BD
:1040B00009D58A48006850F480708849086026480D
:1040C000D0F81401804701BD80B5834800688004A2
:1040D00009D58248006850F48050804908601E4825
:1040E000D0F8180180477C480068800309D57B48D8
:1040F000006850F48030794908601748D0F81C01F6
:10410000804701BD80B514488068804701BD80B5F7
:104110001148C068804701BD80B50F4800698047DD
:1041200001BD80B50C484069804701BD80B50A4893
:104130008069804701BD80B50748C069804701BDDF
:1041400080B50548006A804701BD80B50248406AD5
:10415000804701BD00000000BC12002080B560480F
:10416000806A804701BD80B55D48C06A804701BD57
:1041700080B55B48006B804701BD80B55848406BF7
:10418000804701BD80B55648806B804701BD80B532
:104190005348C06B804701BD80B55148006C8047D3
:1041A00001BD80B54E48406C804701BD80B54C488C
:1041B000806C804701BD80B54948C06C804701BD17
:1041C00080B54748006D804701BD80B54448406DCB
:1041D000804701BD80B54248806D804701BD80B5F4
:1041E0003F48C06D804701BD80B53D48006E8047A7
:1041F00001BD80B53A48406E804701BD11390008C5
:1042000080B53748806E804701BD80B53448C06EA8
:10421000804701BD80B53248006F804701BD80B541
:104220002F48406F804701BD80B52D48806F804783
:1042300001BD80B52A48C06F804701BD80B52848C0
:10424000D0F88000804701BD80B52548D0F88400B3
:10425000804701BD80B52248D0F88800804701BD65
:1042600080B51F48D0F88C00804701BD80B51C4840
:10427000D0F89000804701BD80B51948D0F894006F
:10428000804701BD80B51648D0F89800804701BD31
:1042900080B51348D0F89C00804701BD80B5104818
:1042A000D0F8A000804701BD80B50D48D0F8A4002B
:1042B000804701BD80B50A48D0F8A800804701BDFD
:1042C00080B50748D0F8AC00804701BD1404014018
:1042D00000000240040002400004024004040240C6
:1042E000BC12002010F007024A4B1B6819004FF661
:1042F000FF031940484B53EA02231943454B196009
:104300007047012110F01F029140444A40B2430916
:1043100042F82310704710B440B2002808D50A01B3
:104320003F4B40B210F00F04E31803F8042C03E0F5
:104330000A013C4B40B2C25410BC704770B4030039
:1043400013F00704D4F10706052E01D3042001E081
:10435000D4F10700261D072E01D2002500E0E51E3E
:10436000012616FA00F0401E0840A8400121A9408D
:10437000491E1140084370BC7047BFF34F8F25485A
:10438000006810F4E0602849084322490860BFF340
:104390004F8F00BFFDE780B5FFF7EFFF01BD70B5A0
:1043A00004000D0016000520FFF79CFF32002900D5
:1043B0000520FFF7C3FF0100200040B2FFF7ABFF6D
:1043C000200040B2FFF79DFF70BD1849096851F009
:1043D0000101164A11601649096831F0E061144A7A
:1043E0001160C0B2002803D0022809D001D30EE02A
:1043F0000DE00F49096851F000710D4A116006E0A7
:104400000B49096851F08061094A1160FFE7704764
:10441000000000000CED00E00000FA0500E100E003
:1044200018ED00E000E400E00400FA051810024076
:1044300004000140C1680069081A704710B5040003
:104440002000FFF7F7FF6168081A10BD10B50400DF
:104450002000FFF7EFFF6168884201DB012000E0E8
:104460000020C0B210BDC1680069814201D10120A5
:1044700000E00020C0B2704710B404002160636007
:10448000A260002020612069E060012010BC70471C
:104490002DE9F84F040089461700D4F800B0200039
:1044A000FFF7D4FF002801D0002048E02000FFF7EC
:1044B000C5FF06000500E0686168491E084028182D
:1044C0006168884206D36068E1686268521E1140E4
:1044D000401A0500761BBD4200DB3D007F1BBE423B
:1044E00000DB3E00BF1BE0686168491E0840A16810
:1044F00001FB00BBA06800FB05F8CDF80090424628
:1045000000995846FDF782FFE0682818E0602068AF
:10451000E1686268521E1140A26802FB01008346F6
:10452000A06800FB0599A06800FB06FA52464946C0
:104530005846FDF76BFFE0683018E0607019BDE881
:10454000F28F2DE9F84F04008B461700D4F8008055
:104550002000FFF788FF002801D0002048E020005D
:10456000FFF768FF0600050020696168491E0840E2
:1045700028186168884206D3606821696268521E03
:104580001140401A0500761BBD4200DB3D007F1B39
:10459000BE4200DB3E00BF1B20696168491E084027
:1045A000A16801FB0088A06800FB05F9CDF8008038
:1045B0004A4600995846FDF729FF206928182061CE
:1045C000206821696268521E1140A26802FB010046
:1045D0008046A06800FB05BBA06800FB06FA5246B7
:1045E00041465846FDF712FF2069301820617019C6
:1045F000BDE8F28F62F30F2262F31F42401810F001
:10460000030308D0C91A1FD3DB0748BF00F8012DE8
:1046100028BF20F8022D130030B414461546103977
:1046200028BF20E93C00FAD8490728BF20E90C0040
:1046300048BF40F8042D890028BF20F8022D48BF4C
:1046400000F8012D30BC7047C91818BF00F8012DC3
:10465000CB0728BF00F8012D7047000080B5DFF8B8
:10466000980400F077FADFF8900400F087FA01214F
:10467000032000F03DFB0121042000F039FB012163
:10468000052000F035FB0121062000F031FB01215F
:10469000072000F02DFB0021012000F079FB002114
:1046A000022000F075FB0021032000F071FB0021C7
:1046B000042000F06DFB0021052000F069FB0021C3
:1046C000062000F065FB0021072000F061FB0021BF
:1046D000082000F05DFB0021092000F059FB0021BB
:1046E0000A2000F055FB00210B2000F051FB0021B7
:1046F0000C2000F04DFB01210D2000F049FB01BD15
:1047000080B5FFF7ABFF5FF4E131002000F08CFCD7
:104710005FF4E131012000F087FC6846DFF8DC132C
:104720000A6802600121684600F09EFC10230C22FA
:104730000A21092000F009FD01BD80B5DFF8C003A2
:1047400000F078FD002807D06421DFF8B40300F002
:1047500065FD002000F052FA01BD10B50400E4B27E
:10476000002C05D0022C45D021D3032C65D083E04A
:10477000DFF8900304700021012000F027FA0120E7
:1047800000F048FA0028FAD10021022000F01EFAB9
:10479000022000F03FFA0028FAD10021032000F0A7
:1047A00015FA032000F036FA0028FAD164E0002060
:1047B000DFF854130870DFF84C0304700021022066
:1047C00000F004FA022000F025FA0028FAD10021B6
:1047D000032000F0FBF9032000F01CFA0028FAD1B6
:1047E0000121012000F0F2F9012000F013FA002865
:1047F000FAD041E00120DFF810130870DFF804035D
:1048000004700121022000F0E1F9022000F002FA18
:104810000028FAD00021032000F0D8F9032000F08E
:10482000F9F90028FAD10121012000F0CFF9012087
:1048300000F0F0F90028FAD01EE0DFF8C80204709A
:104840000021012000F0C2F9012000F0E3F9002866
:10485000FAD10021022000F0B9F9022000F0DAF9C3
:104860000028FAD10121032000F0B0F9032000F064
:10487000D1F90028FAD0FFE710BDDFF888020078F0
:10488000704701000122DFF884020068814201D3F1
:1048900002200EE0DFF878020078002808D101201D
:1048A000DFF86C321870DFF86C0201600020020043
:1048B0001000704710B5DFF8600200F0BBFC002864
:1048C00000F0B6806421DFF8500200F0A7FCDFF8AA
:1048D00040020078002800F0AB80DFF8400200685A
:1048E000DFF830120968884243DAFFF7C6FF040098
:1048F000E4B2002C05D0022C19D017D3032C23D0FE
:1049000096E0DFF81C020068401CDFF81412086013
:10491000DFF80C020068142807D3DFF80812012022
:1049200000F08CFB0120FFF718FF81E080E0002001
:10493000DFF8EC110860DFF8F011012000F07EFBD9
:104940000320FFF70AFF73E0DFF8D4010068401C82
:10495000DFF8CC110860DFF8C8010068142807D31D
:10496000DFF8C811012000F069FB0120FFF7F5FE18
:104970005EE0DFF8A0010068DFF8A0110968884256
:1049800042DAFFF77AFF0400E4B2002C05D0022CD3
:1049900024D017D3032C22D04AE0DFF8840100682A
:1049A000401CDFF87C110860DFF8740100681428EF
:1049B00007D3DFF87C11012000F040FB0220FFF755
:1049C000CCFE35E00020DFF858110860DFF86411F4
:1049D000012000F033FB0320FFF7BFFE28E0DFF8E3
:1049E00040010068401CDFF838110860DFF8300132
:1049F0000068142807D3DFF84011012000F01EFBE7
:104A00000220FFF7AAFE13E0DFF810010068DFF8CC
:104A10000411096888420BD1DFF82011012000F051
:104A20000DFB0320FFF799FE0020DFF8E41008706B
:104A300010BD10B5A2B0DFF8080100F0FBFB0028A4
:104A400043D01421DFF8F80000F0E8FB00200090CC
:104A5000684600F01DFB0400012C36D1DFF8E4109D
:104A6000012000F0EBFADFF8A0000078002807D161
:104A7000DFF8A8000068401CDFF8A010086014E010
:104A8000DFF88400007801280FD1DFF8900000687B
:104A9000401EDFF888100860DFF8800000680028FA
:104AA00003D50020DFF87410086001A8802100F011
:104AB000DBFBDFF868000268DFF88C1001A800F06B
:104AC000D7FB01A9012000F0B9FA22B010BD80B5D2
:104AD000DFF8780000F0AEFB00280CD04FF47A71BC
:104AE000DFF8680000F09AFBDFF864000068401C03
:104AF000DFF85C10086001BDC4000020E05D000824
:104B0000840000206515002064150020DC000020D2
:104B10006615002050150020940000204C15002040
:104B2000541500201C5C00083C5C00085C5C00081C
:104B30007C5C00089C5C0008BC5C0008E85A00082B
:104B4000A4000020DC5C0008585D0008B4000020D0
:104B50005815002010B50400002C0DD0E068212865
:104B60000AD2A068212807D2DFF89C042100102275
:104B7000FDF75CFC002000E0012010BD38B504000A
:104B8000002C01D1012020E00025A06885420AD236
:104B9000206810EB85004188206830F8250000F07F
:104BA0008BFB6D1CF1E70025E06885420AD2606846
:104BB00010EB85004188606830F8250000F072FB3A
:104BC0006D1CF1E700F054F8002032BD38B5040048
:104BD0000D00DFF834048068A0420ED32A00D2B260
:104BE000DFF82404006810EB84004188DFF8180423
:104BF000006830F8240000F069FB31BD10B50400F6
:104C0000200000F007F890F00101C9B22000FFF782
:104C1000DDFF10BD10B50400DFF8EC038068A04292
:104C20000DD3DFF8E403006810EB84004188DFF85F
:104C3000D803006830F8240000F055FB00E00020A5
:104C400010BD10B50400DFF8C003C068A0420DD34A
:104C5000DFF8B403406810EB84004188DFF8A80354
:104C6000406830F8240000F03EFB00E0002010BD5A
:104C700070B544F6206000F099FA0024DFF888034C
:104C8000C06884421AD22000FFF7DBFF202194FB8A
:104C9000F1F1DFF87823202394FBF3F3DFF86C5372
:104CA00055F82330C0B2202594FBF5F606FB1546D7
:104CB000B040184342F82100641CDFE70024DFF80D
:104CC00048038068844211D2202094FBF0F5DFF87D
:104CD00040632000FFF79EFF202194FBF1F202FBCE
:104CE0001142904046F82500641CE8E7002070BDA2
:104CF00010B4C9B2002913D0DFF81823430952F8C1
:104D00002320C9B22023B0FBF3F404FB130411FAEF
:104D100004F31A43DFF8FC32440943F8242012E07C
:104D2000DFF8F022430952F82320C9B22023B0FB58
:104D3000F3F404FB130411FA04F39A43DFF8D432BA
:104D4000440943F8242010BC704730B4DFF8BC128B
:104D5000420951F8221001222023B0FBF3F404FB96
:104D60001304A2401140AB4A430952F82320012307
:104D70002024B0FBF4F505FB1405AB401A4051406C
:104D8000002901D0012000E00020C0B230BC7047F3
:104D900038B504000D00A048610950F82100202119
:104DA000B4FBF1F202FB1142D040C00701D595F0EF
:104DB00001052900C9B22000FFF708FF31BDF8B591
:104DC0006846002101609048C068002803D08E48E2
:104DD0004068002800D17CE000248B48C0688442F1
:104DE00017D2202094FBF0F56E46202094FBF0F0C3
:104DF000694651F820702000FFF723FF202194FB23
:104E0000F1F202FB11429040384346F82500641C41
:104E1000E3E700247C48C068401E4009401C8442EF
:104E200057D2684650F82400784951F82410884237
:104E30000AD120250026794810EB441732002900BA
:104E40003800FFF7D7FB42E000206F49C968491ED0
:104E5000B4EB511F08D16C49C9682022B1FBF2F3B1
:104E600003FB1213180001E02021080000218142F9
:104E70002DDA6A4652F8242001238B401A40634BF6
:104E800053F8243001258D402B409A4205D1002251
:104E9000624B13EB4413CA5417E0604A12EB4412FE
:104EA0008A5C521C5D4B13EB4413CA545B4A12EBF1
:104EB00044128A5C042A08DB544A52F82420012355
:104EC0008B405A40514B43F82420491CCFE7641CC7
:104ED000A0E7F1BDF8B56846002101604A48806846
:104EE000002803D048480068002800D17CE0002456
:104EF00045488068844217D2202094FBF0F56E4626
:104F0000202094FBF0F0694651F820702000FFF754
:104F100081FE202194FBF1F202FB114290403843C4
:104F200046F82500641CE3E7002437488068401EEB
:104F30004009401C844257D2684650F82400344946
:104F400051F8241088420AD120250026344810EB5D
:104F50004417320029003800FFF74CFB42E00020E4
:104F600029498968491EB4EB511F08D1264989682F
:104F70002022B1FBF2F303FB1213180001E0202101
:104F80000800002181422DDA6A4652F824200123CC
:104F90008B401A401E4B53F8243001258D402B4086
:104FA0009A4205D100221E4B13EB4413CA5417E05A
:104FB0001B4A12EB44128A5C521C194B13EB44132C
:104FC000CA54174A12EB44128A5C042A08DB104ABE
:104FD00052F8242001238B405A400D4B43F82420E3
:104FE000491CCFE7641CA0E7F1BD80B50D4800F077
:104FF00021F9002807D005210A4800F003F9FFF73E
:10500000DEFEFFF767FF01BDDC140020FC1400206A
:10501000001500200415002008150020741400203D
:10502000941400206400002038B504000D0029000D
:105030002000C0B200F061F9002032BD38B5040094
:105040000D0029002000C0B200F061F9002032BD3F
:1050500070B504000D001600320029002000C0B217
:1050600000F05FF970BD0000F8B504000D00EDB26E
:10507000052D01DB01200AE0EDB2AE00164F320033
:1050800021003800FDF7C2F9144805700020F2BD78
:10509000F8B504000025002610480078002818D034
:1050A00000270E480078874209DA0B4850F827009D
:1050B000FFF74BFEB840284305007F1CF1E7084886
:1050C000006868402840060005480560002C00D0B4
:1050D00025603000F2BD0000EC14002061150020B6
:1050E0002C15002038B504000D00EDB2002D01D0C4
:1050F000012100E00021C9B21D480068FFF766FDEC
:1051000031BD38B504000D00EDB2002D01D00121F4
:1051100000E00021C9B217480068FFF757FD31BD14
:1051200038B504000D00EDB2002D01D0012100E0E2
:105130000021C9B210480068FFF748FD31BD10B525
:105140000400200000F03EF810BDF0B583B004006C
:105150000D0016001F003800C0B2019007480090F3
:10516000074B084A0849002000F0E6F8F7BD0000A8
:105170000C15002010150020141500203F510008C8
:105180002151000803510008E5500008814201D375
:10519000081A00E0081A704710B50400012000F05A
:1051A000EDF810BD80B500F0E5F802BD81B000213A
:1051B00000910099814203D20099491C0091F8E7BF
:1051C00001B0704710B5040006480078002803D0ED
:1051D000200000F0D9F804E00A2000FB04F0FFF7FB
:1051E000E5FF10BD6315002038B50400FFF7DAFFB6
:1051F0000500FFF7D7FF01002800FFF7C7FFA04217
:10520000F7D331BD38B504000D0001202060002027
:105210006060A560FFF7C6FFE06031BD38B50400EF
:105220000D000120206001206060A560FFF7BAFF3B
:10523000E06031BD10B504002068002801D10020D5
:1052400010E0FFF7AFFF0100E068FFF79FFFA168E4
:10525000884206D36068002801D000202060012029
:1052600000E0002010BD0000002200F097B8000010
:105270000CB41CB5044604A801900A46009401AB86
:105280006946074878441830FCF7F2F9009A002183
:10529000117000285CBF0098001B16BC5DF80CFB69
:1052A00087C3FFFF38B504000D00290089B2200034
:1052B00080B2FEF717FB31BD38B504000D002900A0
:1052C00089B2200080B2FEF718FB31BD70B5040032
:1052D0000D0016003200D2B2290089B2200080B23F
:1052E000FEF7D1FA70BD38B504000D00290089B26F
:1052F000200080B2FEF7E8FA32BD38B504000D0098
:1053000029002000C0B2FEF725F8002032BD38B5D4
:1053100004000D0029002000C0B2FEF7FBF80020B9
:1053200032BD70B504000D001600320029002000C7
:10533000C0B2FEF73DF870BD70B4039D049C074EEB
:105340003060074E3160074E3260074E3360074EC3
:105350003560074E347070BC704700003015002077
:1053600034150020381500203C1500204015002081
:105370006215002080B500F061F802BD10B5040090
:10538000200000F05EF810BD10B5040021000248B6
:10539000007800F07DF810BD6015002000B500BF5A
:1053A000130096469446103928BFA0E80C50FAD84E
:1053B0005FEA417C28BF0CC048BF40F8042BC907F6
:1053C00028BF20F8022B48BF00F8012B00BD0000C9
:1053D00010B440B2002808D50A01244B40B210F0A6
:1053E0000F04E31803F8042C03E00A01204B40B239
:1053F000C25410BC704710B50400601EB0F1807F2D
:1054000001D301200EE0601E1A4908600F215FF0F1
:10541000FF30FFF7DDFF002017490860072017491C
:105420000860002010BD16490860704715480068E4
:105430001349096808181349086070471148006843
:10544000704710B5040000F093F80F4800684FF45F
:105450007A71B0FBF1F06043FFF7CDFF2000FFF75A
:10546000E2FF00210948FEF75FFB10BD18ED00E0E8
:1054700000E400E014E000E018E000E010E000E0EC
:10548000D400002018150020D80000202D5400085A
:1054900000293BD01F4A12681F4BB2FBF3F2521E89
:1054A0001B4BC0B253F820301A85194AC0B252F8CB
:1054B00020209185164AC0B252F82020928A52F0DC
:1054C0000102134BC0B253F820309A82104AC0B286
:1054D00052F82020128A4FF6FE731A400C4BC0B2CD
:1054E00053F820301A820A4AC0B252F8202012889B
:1054F00052F00102064BC0B253F820301A80044A21
:10550000C0B252F82020128AD207F8D570470000A6
:10551000105A0008D800002040420F0080B575489E
:10552000006850F0010073490860734800687349CF
:105530000840714908606F480068714908406D492A
:1055400008606C48006830F480206A4908606A4846
:10555000006830F4FE00684908605FF41F00694984
:10556000086000F053F85FF000606749086001BD13
:1055700010B40020002100225F4B1B6813F00C03C5
:1055800018000300002B04D0042B06D0082B08D0F1
:105590002BE05E4B5E4C23602AE05C4B5C4C23604E
:1055A00026E0554B1B6813F470131900524B1B680F
:1055B00013F480331A00890C891C002A05D1554B3D
:1055C00003FB01F3524C23600EE04B4B1B689B0323
:1055D00005D5504B03FB01F34D4C236004E04B4BCE
:1055E00003FB01F34A4C236002E0484B484C236024
:1055F000414B1B68484CC3F303131B5D1800444B1D
:105600001B68C340424C236010BC704780B500F05B
:1056100001F801BD82B000200190002000903548C3
:10562000006850F48030334908603248006810F454
:10563000003000900198401C01900098002803D190
:105640000198B0F5A06FF0D12A480068800302D518
:105650000120009001E0002000900098012847D12F
:105660002E48006850F010002C4908602B48006854
:1056700080088000294908602848006850F002002E
:10568000264908601C4800681B4908601A480068E1
:10569000194908601848006850F48060164908608D
:1056A0001548006830F47C101349086012480068FF
:1056B00050F4E810104908600E48006850F08070FF
:1056C0000C4908600B4800688001FBD50A48006857
:1056D00080088000084908600748006850F0020010
:1056E000054908600448006810F00C000828F9D14A
:1056F00002B0704700100240041002400000FFF8A2
:10570000FFFFF6FE0810024008ED00E000127A00EC
:10571000D800002000093D00740000200020024055
:105720002DE9F04F85B004461E000D4690461CBF83
:1057300000203060A14601E009F1010999F800005C
:10574000A0F109010529F7D32028F5D02D2816BF8F
:105750002B2819F8017B2B27B8F1000F57D4B8F18B
:10576000010F54D0B8F1250F51DAB8F1010F0DDB5C
:10577000B8F1100F04BF99F80000302802BF99F863
:10578000010040F02000782814D10EE099F80000C4
:10579000302818BF4FF00A080CD199F8010040F0EA
:1057A0002000782804D14FF0100809F1020901E027
:1057B0004FF00808CDF8109001E009F1010999F8BF
:1057C00000003028F9D00FF2A40B4FF0000ACDF8FA
:1057D0000C908DF808B00AE09DF80810CDF804A0F0
:1057E000401AC0B2009008FB0A0A09F1010999F8B1
:1057F0000010A1F141001A2838BF20314246584616
:10580000FCF760FD0028E7D10498484503D105B1B5
:105810002C60002025E00FF27C01039818F801109D
:10582000A9EB0000401A14D4012808DA0098BAEB5A
:10583000000004D30199B0FBF8F0884209D000F0D1
:105840003DF8222101600EB1012030604FF0FF3A97
:1058500003E02D2F08BFCAF1000A0DB1C5F8009072
:10586000504605B0BDE8F08F002359E730313233A0
:105870003435363738396162636465666768696AEA
:105880006B6C6D6E6F707172737475767778797AF0
:105890000000000000002115110E0D0C0B0B0A0A70
:1058A0000909090909080808080808080707070777
:1058B000070707070707070707000000014800F070
:1058C00003B80000E0000020704700002DE9F0431D
:1058D00085B001222F483049096809180020FFF7D8
:1058E000B7FB00284ED02B482B490968085C2E28AE
:1058F00043D10324220025A1264800F053F80028B4
:1059000037D168461021FFF7AFFC0025002022495F
:105910000968091B884206D21E490219515C6A4671
:105920008154401CF3E7684600F06DF8050028003C
:10593000FEF7A7FF0600002E03D0022E0BD005D3E2
:105940000DE013A10020FFF779FB08E013490020C8
:10595000FFF774FB03E012490020FFF76FFB4027BD
:105960005FF00008DFF82C90424639004846FEF709
:1059700041FE00200849086004E007480068401C18
:105980000549086005B0BDE8F08300BF49443A000E
:105990004F4B2E003414002048150020C85D00082D
:1059A000D05D00080300002013F0030F09D0521E41
:1059B00022BF13F8010B11F801CBB0EB0C00F3D0B0
:1059C0007047121F22BF53F8040B51F804CB6045F7
:1059D000F7D0121D0AD200BA9CFA8CFCB0EB0C0076
:1059E00038BF6FF0000088BF01207047521E22BFF1
:1059F00013F8010B11F801CBB0EB0C00F6D0521CE0
:105A000008BF104670470A220021FFF72DBF000093
:105A1000002C014000340140000000400004004020
:105A200000080040000C004000100040001400403E
:105A3000004C01400050014000540140001800405B
:105A4000001C004000200040004001400044014094
:105A50000048014019E050F8041BCB0744BFA9F1EE
:105A600001035918121F0023042A41F8043BF9D2FC
:105A70005FEA827C0B4604D54FF0000CA1F800C011
:105A80009B1CD10744BF0021197050F8042B002A39
:105A9000E1D1704780B500F018F801BD80B5044829
:105AA000FFF7C8FB002801D0FFF7F4FF01BD00009D
:105AB000CC14002080B500F00CF801BD10B5040036
:105AC0002000C0B200F009F810BD80B5FEF763FCFD
:105AD00001BD80B562B6C04601BD10B5040020000E
