:020000040800F2
:10000000C81C0020053300082D33000831330008D8
:1000100035330008393300083D3300080000000084
:100020000000000000000000000000004133000854
:10003000453300080000000049330008F3120008AF
:10004000B9150008C3150008CD150008D71500081C
:10005000E1150008EB150008031300082913000838
:100060004F130008751300089B1300083114000893
:10007000571400087D1400089D140008BD140008E2
:10008000DD140008FD140008F5150008FF15000830
:10009000111600081B16000825160008C1130008D9
:1000A0002F16000839160008431600084D160008E0
:1000B00057160008611600086B1600087516000830
:1000C0007F16000889160008931600089D16000880
:1000D000A7160008B5160008BF160008C9160008C4
:1000E000F9130008D3160008DD160008E71600080B
:1000F000F1160008FD16000809170008151700087A
:10010000211700082D1700083917000845170008A7
:10011000511700085D1700086917000875170008D7
:100120001D1500083D1500085D1500087D15000827
:1001300010B50400E4B2002C05D0022C18D00DD369
:10014000032C1FD029E00B220921002000F01CFD08
:1001500008220A21002000F017FD1EE00B220221D8
:10016000002000F011FD08220321002000F00CFD0A
:100170000B220A21012000F007FD08220B2101209B
:1001800000F002FD0B220A21022000F0FDFC0822F3
:100190000B21022000F0F8FCFFE710BD10B50400B1
:1001A000E4B2002C05D0022C19D00DD3032C21D0A1
:1001B0002BE036210FF6310000F010FF15210FF66D
:1001C000E90000F00BFF20E037210FF64D0000F0B2
:1001D00005FF18210FF6F10000F000FF15E03821AF
:1001E0000FF6650000F0FAFE13210FF6FD0000F097
:1001F000F5FE0AE044210FF6810000F0EFFE1D211C
:100200000FF6051000F0EAFEFFE710BD2DE9F843F8
:1002100006000F00F6B2002E05D0022E15D00BD32B
:10022000032E1BD022E0DFF80009006850F4804064
:10023000DFF8F418086019E0DFF8F008006850F4FF
:100240000030DFF8E818086010E0DFF8E008006828
:1002500050F48020DFF8D418086007E0DFF8CC08FD
:10026000006850F40020DFF8C4180860DFF8C00808
:10027000F6B250F8260080894EF6FF710840DFF88C
:10028000B018F6B251F826108881DFF8A408F6B24B
:1002900050F8260080894FF6FF310840DFF89018AB
:1002A000F6B251F826108881DFF88408F6B250F8CB
:1002B0002600808950F00800DFF87418F6B251F873
:1002C00026108881DFF86808F6B250F82600808989
:1002D00050F00400DFF85818F6B251F82610888163
:1002E000DFF84C08F6B250F82600008A4CF6FF7191
:1002F0000840DFF83C18F6B251F826100882DFF803
:100300003008F6B250F82600808A50F08000DFF8FE
:100310002018F6B251F826108882DFF81408F6B2D9
:1003200050F82600808A50F04000DFF80418F6B23A
:1003300051F826108882DFF8F807F6B250F8260048
:1003400080894FF6BF710840DFF8E417F6B251F824
:1003500026108881DFF8D807F6B250F82600808989
:100360004FF6DF710840DFF8C817F6B251F82610D3
:100370008881DFF8BC07F6B250F82600808950F07B
:100380001000DFF8AC17F6B251F82610888102226F
:100390000221DFF8A007F6B2305601F05AFAF6B2A1
:1003A000002E03D1DFF89007016803E0DFF888072B
:1003B00000684108F6B2002E03D1DFF87C07006820
:1003C00003E0DFF8740700684008F6B2002E04D19D
:1003D000DFF86427D2F8008004E0DFF85C271268B9
:1003E0005FEA52083A01B1FBF2F901F07DFA04002C
:1003F0000D00380001F078FA0022DFF8403701F0F4
:1004000081FA02000B002000290001F04DFB0400DE
:100410000D003801B8FBF0F080B201F065FA02007F
:100420000B002000290001F06BFC0022DFF80C37E4
:1004300001F068FA01F024FDC0B250EA0910DFF8BB
:10044000F016F6B251F826100881DFF8E406F6B28D
:1004500050F82600808950F40050DFF8D416F6B228
:1004600051F826108881BDE8F1831FB50400684665
:10047000DFF8CC16102201F039FDE4B2032C08D0CD
:10048000DFF8C006006850F00100DFF8B816086019
:1004900007E0DFF8B006006850F00200DFF8A416AD
:1004A0000860DFF8A406E4B250F82400006830F4D5
:1004B0008040DFF89416E4B251F824100860DFF8A9
:1004C0008806E4B250F82400006830F44050DFF8A9
:1004D0007816E4B251F824100860DFF86C06E4B234
:1004E00050F82400006850F48050DFF85C16E4B245
:1004F00051F824100860DFF85006E4B250F82400E8
:10050000006830F44060DFF84016E4B251F824107F
:100510000860DFF83406E4B250F824000068DFF821
:100520002816E4B251F824100860DFF81C06E4B283
:1005300050F82400006830F44070DFF80C16E4B284
:1005400051F824100860DFF80006E4B250F82400E7
:100550000068DFF8F415E4B251F824100860DFF801
:10056000E805E4B250F82400006850F08000DFF89D
:10057000D815E4B251F824100860DFF8CC05E4B2D5
:1005800050F82400006830F04000DFF8BC15E4B2F9
:1005900051F824100860DFF8B005E4B250F82400E8
:1005A000006830F02000DFF8A015E4B251F8241004
:1005B0000860DFF89405E4B250F82400006830F0D9
:1005C0001000DFF88415E4B251F824100860DFF859
:1005D0007805E4B250F82400006830F00800DFF835
:1005E0006815E4B251F824100860DFF85C05E4B245
:1005F00050F82400006830F00400DFF84C15E4B235
:1006000051F824100860DFF84005E4B250F82400E7
:10061000006830F00200DFF83015E4B251F8241021
:100620000860DFF80C05E4B250F82400001DDFF884
:100630001815E4B251F8241088606846E4B250F806
:100640002400DFF80415E4B251F82410C8604FF418
:100650000070DFF8F414E4B251F824104860DFF8B9
:10066000E804E4B250F82400006850F00100DFF81C
:10067000D814E4B251F8241008601FBD10B504006E
:10068000E4B2032C08D0DFF8BC04006850F001008D
:10069000DFF8B014086007E0DFF8A804006850F045
:1006A0000200DFF8A0140860DFF8A004E4B250F8FC
:1006B0002400006830F48040DFF89014E4B251F870
:1006C00024100860DFF88404E4B250F824000068C5
:1006D00030F44050DFF87414E4B251F8241008608C
:1006E000DFF86804E4B250F82400006850F4805049
:1006F000DFF85814E4B251F824100860DFF84C0415
:10070000E4B250F82400006830F44060DFF83C1494
:10071000E4B251F824100860DFF83004E4B250F875
:1007200024000068DFF82414E4B251F824100860B3
:10073000DFF81804E4B250F82400006830F4407088
:10074000DFF80814E4B251F824100860DFF8FC0365
:10075000E4B250F824000068DFF8F013E4B251F876
:1007600024100860DFF8E403E4B250F824000068C5
:1007700050F08000DFF8D413E4B251F82410086080
:10078000DFF8C803E4B250F82400006830F04000FD
:10079000DFF8B813E4B251F824100860DFF8AC03B6
:1007A000E4B250F82400006830F02000DFF89C1319
:1007B000E4B251F824100860DFF89003E4B250F876
:1007C0002400006850F01000DFF88013E4B251F804
:1007D00024100860DFF87403E4B250F824000068C5
:1007E00030F00800DFF86413E4B251F82410086018
:1007F000DFF85803E4B250F82400006830F0040039
:10080000DFF84813E4B251F824100860DFF83C0325
:10081000E4B250F82400006850F00200DFF82C1316
:10082000E4B251F82410086002220221DFF820030C
:10083000E4B2205601F00DF8DFF8F402E4B250F80B
:100840002400001DDFF80413E4B251F8241088607E
:10085000DFF8F802E4B250F82400006840084000D5
:10086000DFF8E812E4B251F82410086010BDDFF898
:10087000D812C0B251F82010096849084900DFF8C1
:10088000C822C0B252F8202011604FF40071DFF886
:10089000B822C0B252F820205160DFF8AC12C0B2CA
:1008A00051F82010096851F00101DFF89C22C0B214
:1008B00052F820201160704770B504000D00E4B2BA
:1008C000042C26DA2000C0B2FFF768FC4FF4007356
:1008D0000122DFF88002E4B24FF4007101FB040151
:1008E000DFF87402E4B2142606FB040001F042FBB8
:1008F0002000C0B2FFF71CFC29002000C0B2FFF7A7
:1009000085FC2000C0B2FFF7B0FD2000C0B2FFF7A9
:10091000B5FE70BDF8B5040000252068A04201D0E6
:1009200020680500082600273A003100200001F069
:1009300087FB200001F0E4FB2800F2BD010000204D
:10094000C9B2002905D0022909D005D3032909D04D
:100950000BE0824A100008E0814A100005E0814A5D
:10096000100002E0804A1000FFE7704710B4704B9F
:10097000C0B253F820301B885B06F8D5734BC0B269
:1009800053F820301B685B085B00704CC0B254F811
:10099000204023606D4BC0B253F82030D9606B4BC0
:1009A000C0B253F820305A60684BC0B253F82030C0
:1009B0001B6853F00103654CC0B254F8204023601B
:1009C00010BC704738B504002000C0B2FFF7B6FF76
:1009D000050028684268286810F108012000C0B2AC
:1009E000FFF7C4FF31BD000010B551480068008812
:1009F000C00610D54E48006880885348006840689B
:100A0000D0F500740020FFF732FFA4B2220057494E
:100A1000514801F0BBFA10BD10B545484068008848
:100A2000C00610D542484068808847484068406802
:100A3000D0F500740120FFF71AFFA4B222004C4940
:100A40004C4801F0A3FA10BD10B539488068008801
:100A5000C00610D53648806880883B48806840686A
:100A6000D0F500740220FFF702FFA4B22200424931
:100A7000424801F08BFA10BD10B52D48C0680088BF
:100A8000C00610D52A48C06880882F48C0684068D2
:100A9000D0F500740320FFF7EAFEA4B22200384923
:100AA000384801F073FA10BD80B52C480068FFF794
:100AB00031FF2A49086029480068002802D0002038
:100AC000FFF780FF01BD000080B525480068FFF7F3
:100AD00021FF2349086022480068002802D0012035
:100AE000FFF770FF01BD000080B51E480068FFF7EA
:100AF00011FF1C4908601B480068002802D0022032
:100B0000FFF760FF01BD000080B517480068FFF7E0
:100B100001FF1549086014480068002802D003202E
:100B2000FFF750FF01BD0000181002401C100240EA
:100B3000C432000820330008B80000200000304014
:100B4000F432000814100240D4320008E4320008E5
:100B500024330008BC000020BC130020A81400208F
:100B6000AC140020B0140020B4140020BC080020F5
:100B7000BC0A0020D0130020BC0C0020E41300208D
:100B8000BC0E0020F813002030B4814B1B680124F8
:100B9000851CAC4023437E4C236089B2082963DA6C
:100BA0007C4B80B253F820301B680F240D00EDB24F
:100BB000AD00AC40A343774C80B254F82040236092
:100BC000D2B2082A1DD1734B80B253F820301B6873
:100BD00008240D00EDB2AD00AC4023436D4C80B253
:100BE00054F8204023606B4B80B253F82030DB6810
:100BF00001248C402343674C80B254F82040E360CA
:100C000099E0D2B20C2A1DD1624B80B253F8203049
:100C10001B6808240D00EDB2AD00AC4023435D4CD1
:100C200080B254F8204023605A4B80B253F82030F1
:100C3000DB6801248C40A343564C80B254F820401A
:100C4000E36078E0534B80B253F820301B68D2B297
:100C50000C00E4B2A40012FA04F423434D4C80B219
:100C600054F82040236066E04A4B80B253F82030AD
:100C70005B680F240D00083DEDB2AD00AC40A3430E
:100C8000444C80B254F820406360D2B2082A1ED18E
:100C9000404B80B253F820305B6808240D00083DBB
:100CA000EDB2AD00AC4023433A4C80B254F8204042
:100CB0006360384B80B253F82030DB6801248C40ED
:100CC0002343344C80B254F82040E36033E0D2B286
:100CD0000C2A1ED12F4B80B253F820305B680824B9
:100CE0000D00083DEDB2AD00AC402343294C80B26D
:100CF00054F820406360274B80B253F82030DB6803
:100D000001248C40A343234C80B254F82040E3607C
:100D100011E0204B80B253F820305B68D2B20C0057
:100D2000083CE4B2A40012FA04F42343194C80B244
:100D300054F82040636030BC704710B4D2B2002A2F
:100D40000DD0144B80B253F820301B6901248C4025
:100D50002343104C80B254F8204023610CE00D4B2B
:100D600080B253F820305B6901248C402343094C46
:100D700080B254F82040636110BC7047054A80B2CD
:100D800052F820008068C84010F001007047000051
:100D9000181002406832000838B504000D00042223
:100DA000290089B2200080B2FFF7EEFE31BD38B5D0
:100DB00004000D000322290089B2200080B2FFF751
:100DC000E3FE31BD7047DFF8E808DFF8401808603F
:100DD000DFF8DC08DFF834184860DFF8D408DFF803
:100DE0002C188860DFF8C808DFF82018C860DFF822
:100DF000C008DFF818180861DFF8B408DFF80C182D
:100E00004861DFF8AC08DFF804188861DFF8A00853
:100E1000DFF8F817C861DFF89808DFF8F017086204
:100E2000DFF88C08DFF8E4174862DFF88408DFF8A1
:100E3000DC178862DFF87808DFF8D017C862DFF8BF
:100E40007008DFF8C8170863DFF86408DFF8BC171C
:100E50004863DFF85C08DFF8B4178863DFF85008F0
:100E6000DFF8A817C863DFF84808DFF8A0170864A0
:100E7000DFF83C08DFF894174864DFF83408DFF83F
:100E80008C178864DFF82808DFF88017C864DFF85B
:100E90002008DFF878170865DFF81408DFF86C170A
:100EA0004865DFF80C08DFF864178865DFF800088C
:100EB000DFF85817C865DFF8F807DFF8501708663D
:100EC000DFF8EC07DFF844174866DFF8E407DFF8DF
:100ED0003C178866DFF8D807DFF83017C866DFF8F8
:100EE000D007DFF828170867DFF8C407DFF81C17FA
:100EF0004867DFF8BC07DFF814178867DFF8B0072A
:100F0000DFF80817C867DFF8A807DFF80017C1F88F
:100F10008000DFF89C07DFF8F416C1F88400DFF8E2
:100F20009007DFF8E816C1F88800DFF88407DFF8DB
:100F3000DC16C1F88C00DFF87807DFF8D016C1F8AE
:100F40009000DFF86C07DFF8C416C1F89400DFF8F2
:100F50006007DFF8B816C1F89800DFF85407DFF82B
:100F6000AC16C1F89C00DFF84807DFF8A016C1F8FE
:100F7000A000DFF83C07DFF89416C1F8A400DFF802
:100F80003007DFF88816C1F8A800DFF82407DFF87B
:100F90007C16C1F8AC000020102809DADFF8101721
:100FA000DFF8682612EB8002C2F8B010401CF3E7AD
:100FB0000020022811DA002107290CDADFF84C267C
:100FC0001C2303FB002212EB8102DFF8E436C2F897
:100FD000F030491CF0E7401CEBE770470200002AA4
:100FE00000F08681002900F0B280022900F0B7806D
:100FF000C0F0B180042900F0B280C0F0B0800629B2
:1010000000F0AD80C0F0AB80082900F0A880C0F0EF
:10101000A6800A2900F0A380C0F0A1800C2900F06E
:101020009E80C0F09C800E2900F09980C0F09780CF
:10103000102900F09480C0F09280122900F0968070
:10104000C0F08D80142900F09180C0F08F801629A7
:1010500000F08C80C0F08A80182900F08780C0F0F2
:1010600085801A2900F08980C0F087801C2900F053
:101070008480C0F082801E2900F086807DD32029E4
:1010800000F08A80C0F08480222900F08D80C0F0BA
:101090008780242900F09080C0F08A80262900F003
:1010A0009380C0F08D80282900F09680C0F0908059
:1010B0002A2900F09980C0F093802C2900F09C80B0
:1010C000C0F096802E2900F09F80C0F099803029D2
:1010D00000F0A280C0F09C80322900F0A580C0F012
:1010E0009F80342900F0A880C0F0A280362900F04B
:1010F000AB80C0F0A580382900F0AE80C0F0A88099
:101100003A2900F0B180C0F0AB803C2900F0B480F7
:10111000C0F0AE803E2900F0B980C0F0B280402916
:1011200000F0BE80C0F0B780422900F0C380C0F05C
:10113000BC80442900F0C880C0F0C180462900F07E
:10114000CD80C0F0C680472900F0CD80D0E0DFF828
:10115000BC241060CCE0DFF8B4245060C8E0DFF8B5
:10116000AC2412EB8102C2F8A800C1E0DFF89C2495
:1011700012EB8102C2F8A800BAE0DFF8902412EB6B
:101180008102C2F8A800B3E0DFF880249060AFE0ED
:10119000DFF87824D060ABE0DFF870241061A7E0BE
:1011A000DFF868245061A3E0DFF8602490619FE0DD
:1011B000DFF85824D0619BE0DFF85024106297E0FC
:1011C000DFF84824506293E0DFF8402490628FE01B
:1011D000DFF83824D0628BE0DFF83024106387E03A
:1011E000DFF82824506383E0DFF8202490637FE059
:1011F000DFF81824D0637BE0DFF81024106477E078
:10120000DFF80824506473E0DFF8002490646FE096
:10121000DFF8F823D0646BE0DFF8F023106567E0B7
:10122000DFF8E823506563E0DFF8E02390655FE0D6
:10123000DFF8D823D0655BE0DFF8D023106657E0F5
:10124000DFF8C823506653E0DFF8C02390664FE014
:10125000DFF8B823D0664BE0DFF8B023106747E033
:10126000DFF8A823506743E0DFF8A02390673FE052
:10127000DFF89823D0673BE0DFF89023C2F88000C6
:1012800036E0DFF88823C2F8840031E0DFF87C2301
:10129000C2F888002CE0DFF87423C2F88C0027E045
:1012A000DFF86823C2F8900022E0DFF86023C2F87C
:1012B00094001DE0DFF85423C2F8980018E0DFF82E
:1012C0004C23C2F89C0013E0DFF84023C2F8A000D2
:1012D0000EE0DFF83823C2F8A40009E0DFF82C2381
:1012E000C2F8A80004E0DFF82423C2F8AC00FFE74E
:1012F000704780B5C54800688047C448406880474B
:1013000001BD80B5DFF878040068C0070BD5DFF8B1
:101310007004006850F00100DFF864140860BB48F6
:10132000D0F8B000804701BD80B5DFF854040068F4
:1013300080070BD5DFF84804006850F00200DFF8A2
:1013400040140860B148D0F8B400804701BD80B5B2
:10135000DFF82C04006840070BD5DFF82404006890
:1013600050F00400DFF818140860A848D0F8B8005E
:10137000804701BD80B5DFF80804006800070BD581
:10138000DFF8FC03006850F00800DFF8F413086091
:101390009E48D0F8BC00804701BD80B5DFF8E0036F
:1013A0000068C0060BD5DFF8D803006850F01000C5
:1013B000DFF8CC1308609548D0F8C000804701BD25
:1013C00010B50524092C16DADFF8B4030068E040F4
:1013D000C0070ED5DFF8A80300680121A14008432B
:1013E000DFF89C130860894810EB8400D0F8B00047
:1013F0008047641CE6E710BD10B50A240F2C16DAEE
:10140000DFF87C030068E040C0070ED5DFF870030A
:1014100000680121A1400843DFF8641308607B489D
:1014200010EB8400D0F8B0008047641CE6E710BDE4
:1014300080B5DFF85003006880070BD5DFF848035C
:10144000006850F00100DFF8401308606F48D0F8E2
:10145000F000804701BD80B5DFF8280300688006F2
:101460000BD5DFF82403006850F01000DFF81813E4
:1014700008606648D0F8F400804701BD80B5C148D7
:101480000068800509D5C048006850F48070BE49E6
:1014900008605E48D0F8F800804701BD80B5B948C3
:1014A0000068800409D5B848006850F48050B649F7
:1014B00008605648D0F8FC00804701BD80B5B148AF
:1014C0000068800309D5B048006850F48030AE4908
:1014D00008604E48D0F80001804701BD80B5A9489A
:1014E0000068800209D5A848006850F48010A64919
:1014F00008604648D0F80401804701BD80B5A14886
:101500000068800109D5A048006850F080709E49AD
:1015100008603E48D0F80801804701BD80B59B486F
:101520000068800709D59A48006850F00100984982
:1015300008603648D0F80C01804701BD80B593485B
:101540000068800609D59248006850F01000904964
:1015500008602E48D0F81001804701BD80B58B4847
:101560000068800509D58A48006850F48070884971
:1015700008602648D0F81401804701BD80B5834833
:101580000068800409D58248006850F48050804982
:1015900008601E48D0F8180180477C480068800326
:1015A00009D57B48006850F48030794908601748B5
:1015B000D0F81C01804701BD80B514488068804781
:1015C00001BD80B51148C068804701BD80B50F4896
:1015D0000069804701BD80B50C484069804701BD66
:1015E00080B50A488069804701BD80B50748C06959
:1015F000804701BD80B50548006A804701BD80B5C0
:101600000248406A804701BD00000000941200209B
:1016100080B56048806A804701BD80B55D48C06A7A
:10162000804701BD80B55B48006B804701BD80B538
:101630005848406B804701BD80B55648806B804755
:1016400001BD80B55348C06B804701BD80B551488E
:10165000006C804701BD80B54E48406C804701BD9D
:1016600080B54C48806C804701BD80B54948C06C4E
:10167000804701BD80B54748006D804701BD80B5FA
:101680004448406D804701BD80B54248806D804729
:1016900001BD80B53F48C06D804701BD80B53D4864
:1016A000006E804701BD80B53A48406E804701BD5D
:1016B000C50D000880B53748806E804701BD80B5F4
:1016C0003448C06E804701BD80B53248006F804706
:1016D00001BD80B52F48406F804701BD80B52D48C2
:1016E000806F804701BD80B52A48C06F804701BD2B
:1016F00080B52848D0F88000804701BD80B52548D6
:10170000D0F88400804701BD80B52248D0F8880019
:10171000804701BD80B51F48D0F88C00804701BDCF
:1017200080B51C48D0F89000804701BD80B51948AD
:10173000D0F89400804701BD80B51648D0F89800D5
:10174000804701BD80B51348D0F89C00804701BD9B
:1017500080B51048D0F8A000804701BD80B50D4885
:10176000D0F8A400804701BD80B50A48D0F8A80091
:10177000804701BD80B50748D0F8AC00804701BD67
:101780001404014000000240040002400004024032
:10179000040402409412002010F007024A4B1B6818
:1017A00019004FF6FF031940484B53EA022319432F
:1017B000454B19607047012110F01F029140444AC7
:1017C00040B2430942F82310704710B440B20028D9
:1017D00008D50A013F4B40B210F00F04E31803F89C
:1017E000042C03E00A013C4B40B2C25410BC7047C9
:1017F00070B4030013F00704D4F10706052E01D3DB
:10180000042001E0D4F10700261D072E01D2002597
:1018100000E0E51E012616FA00F0401E0840A84030
:101820000121A940491E1140084370BC7047BFF315
:101830004F8F2548006810F4E0602849084322498A
:101840000860BFF34F8F00BFFDE780B5FFF7EFFFE4
:1018500001BD70B504000D0016000520FFF79CFFC8
:10186000320029000520FFF7C3FF0100200040B22D
:10187000FFF7ABFF200040B2FFF79DFF70BD184996
:10188000096851F00101164A11601649096831F0E2
:10189000E061144A1160C0B2002803D0022809D0C8
:1018A00001D30EE00DE00F49096851F000710D4AB7
:1018B000116006E00B49096851F08061094A116026
:1018C000FFE77047000000000CED00E00000FA05A3
:1018D00000E100E018ED00E000E400E00400FA059B
:1018E0001810024004000140010000BF09D0B0FA06
:1018F00080F18840C91CC1F58461090501EBD02144
:1019000040057047B0B581EA030C0CF0004C40F282
:10191000FF7515EA11541DBF15EA1357AC42AF42CB
:1019200039E0E41923EA455343F48013C90241F036
:10193000004141EA505EC7021100A7FB02020028E5
:101940004FF00000EEFB01204FF00001E3FB072108
:1019500018BF42F00102401800214941E3FB0E018B
:10196000A4F580640F0302D252004041494154F172
:1019700001046CDD470872F1004250F1000051EBA8
:101980000451A1F580115CBF41EA0C01B0BD4CEAE5
:1019900005510020B0BD05EA1357AC4214BFAF4259
:1019A00041E050EA410E1CBF52EA430E02E061469C
:1019B0000020B0BD24423C441BD15FEA070EF6D0A4
:1019C000090302BF01460020AEF1140EB1FA81F7FF
:1019D000AEEB070401FA07FE0C37C7F1200100FA4D
:1019E00007F7C8404EEA000E23EA455343F480133C
:1019F000A2E733F00043B3FA83F704BFB2FA82FEE2
:101A000077440B3FE41BB7F1200E2FBF02FA0EF311
:101A1000BB40C7F1200E22FA0EFE38BF43EA0E0388
:101A2000BA40641C82E750EA410E14BF52EA430EEA
:101A30006FF000014FF4001717EB430F8ABF1946F0
:101A400017EB410FB5E74CEA05510020B0BDD4F1CA
:101A50000104B4F120070FDAC4F12007520828BFAF
:101A600042F0010210FA07F501FA07F7E1BF2A4335
:101A7000E0403843E1400FE0352C98DCC7F120040A
:101A800052EA400220FA07F218BF42F0010231FA8E
:101A900007F0A1400A43002172F1004250F100001A
:101AA00051EB0C01B0BD00002DE9F04140F2FF7593
:101AB00081EA030C0CF0004C15EA11541DBF15EA25
:101AC0001357AC42AF42E9E0BC41C1F31301C3F389
:101AD0001303801A994143F4801304D2641E40001A
:101AE000494180185941C90241EA5051B1FBF3F60E
:101AF00003FB1611A2FB0675D7EBC020A94102D249
:101B0000761E80185941C90241EA5051B1FBF3FEDB
:101B100003FB1E11A2FB0E75D7EBC020A94103D217
:101B2000AEF1010E80185941890241EA90517605C3
:101B300046EA8E2EB1FBF3F603FB1611A2FB0675E7
:101B4000D7EB8020A94102D2761E80185941C902E4
:101B500041EA50514EEA060EB1FBF3F603FB1611B3
:101B6000A2FB0675D7EBC020A94102D2761E8018D1
:101B70005941C90241EA5051B1FBF3F703FB171178
:101B8000A2FB0735D3EBC020A94167F100070CBFCA
:101B9000004247F0010766F3D5274FEA1E31B80827
:101BA00014F5806414DDBD0775F1004250EB0E5052
:101BB00051EB045111F5801F5CBF41EA0C01BDE8F7
:101BC000F0814CF07F6141F0E0410020BDE8F08100
:101BD000BD076D0840EA0E5041F48011D4F10104B4
:101BE000B4F120060ADAC4F120060200E04001FA4E
:101BF00006F3E1401843B24015430EE0342C14DCE8
:101C0000C6F1200445EA40056D0820FA06F21543A6
:101C100021FA06F0A1400D43002175F1004250F178
:101C2000000051EB0C01BDE8F08100205FEA0C01DF
:101C3000BDE8F081CFB992185B41B3FA83F704BFD6
:101C4000B2FA82F6BF190B3FB7F120062FBF02FA96
:101C500006F3BB40C7F1200622FA06F638BF33432D
:101C6000BA401CB1E419641E2FE77F4231F00041F5
:101C7000B1FA81F404BFB0FA80F6A4190B3CB4F1B8
:101C800020062FBF00FA06F1A140C4F1200620FA79
:101C900006F638BF3143A0403C1B16E7AC421ABFE2
:101CA00005EA1357AF4214E050EA41061CBF52EA5E
:101CB0004306BFE750EA4107304661461CBF41EA90
:101CC0000551BDE8F08152EA430C08BFC143BDE8AD
:101CD000F08100204FF4001616EB410F98BF16EB71
:101CE000430F08BF16EB410F24BFC14305E016EBBD
:101CF000430F0CBF61464CEA0551BDE8F08100007E
:101D0000F0B44FF0004591EA030F44BF6B4000F080
:101D100083BC00BF841A71EB030604D26E40001B23
:101D2000B141121973414FF4001C1CEB410F34BF39
:101D30007CEB430684E00C0DA4EB1356362E7DDCC1
:101D4000012E43DC45EAC32343EA525312BFD202B9
:101D500092025B08240545EAC12141EA5051D2EBC9
:101D6000C020994125D407D1B0FA80F610FA06F1C7
:101D700064D00020203608E0B1FA81F6B140C6F107
:101D8000200220FA02F21143B0404FEAF474B4EB9F
:101D9000465434F001064FEA74040AD8D6F500160A
:101DA000760D04F00044F04061FA06F25040F14034
:101DB0004840C00A40EA415021F0004128BF5FEA94
:101DC000500550F1000044EBD12137E045EAC32330
:101DD000DB0A45EAC121C90AB6F120050EDD42EA57
:101DE0000242120CC5F1200603FA06F6EB4042EA65
:101DF00006056D42984161F100010DE062FA06F5B9
:101E0000F240554063FA06FC82EA0C02F3405A4065
:101E10006D42904161EB030111F4801F05D1641EF6
:101E2000620502D06D004041494121F48011430810
:101E300075F1004350F1000041EB0451F0BC7047D4
:101E40001CEB410F15D223F0004352EA43060BD09E
:101E50004FEA4C0CBCEB410F04D80C0D661E342E1F
:101E6000B7DDEBE7801A994150EA410608BF00212F
:101E7000E4E708BF1CEB430F28BF6FF00001DDE76C
:101E8000F446400D40EAC120490006D200F00EF8A9
:101E9000004248BF6FF00040604700F007F84FF085
:101EA000004188428CBF08464042604740F00040F5
:101EB000490DA1F58061491C05D4D1F11F0154BF22
:101EC000C840C01770474FF00000704762B38B07DF
:101ED00008D0521E11F8013B00F8013B00F02480AD
:101EE0008B07F6D1830740F0208000BF103A07D35C
:101EF00030B4B1E83810103AA0E83810F9D230BC4C
:101F0000530724BFB1E80810A0E8081044BF51F8F7
:101F1000043B40F8043BD20724BF31F8022B20F8E1
:101F2000022B44BF0B7803707047083A07D3B1E81F
:101F30000810083A40F8043B40F804CBF7D25307A6
:101F4000E4E7C1680069081A704710B50400200072
:101F5000FFF7F7FF6168081A10BD10B504002000F4
:101F6000FFF7EFFF6168884201DB012000E00020FD
:101F7000C0B210BD10B4040021606360A2600020F4
:101F800020612069E060012010BC70472DE9F84F06
:101F9000040089461700D4F800B02000FFF7DDFFE9
:101FA000002801D0002048E02000FFF7CEFF060007
:101FB0000500E0686168491E084028186168884289
:101FC00006D36068E1686268521E1140401A05003D
:101FD000761BBD4200DB3D007F1BBE4200DB3E00A6
:101FE000BF1BE0686168491E0840A16801FB00BB97
:101FF000A06800FB05F8CDF80090424600995846CD
:10200000FFF764FFE0682818E0602068E168626814
:10201000521E1140A26802FB01008346A06800FB2B
:102020000599A06800FB06FA524649465846FFF754
:102030004DFFE0683018E0607019BDE8F28F0000D5
:1020400062F30F2262F31F42401810F0030308D01E
:10205000C91A1FD3DB0748BF00F8012D28BF20F89D
:10206000022D130030B414461546103928BF20E95C
:102070003C00FAD8490728BF20E90C0048BF40F8C7
:10208000042D890028BF20F8022D48BF00F8012D3B
:1020900030BC7047C91818BF00F8012DCB0728BF06
:1020A00000F8012D7047000000F5E07002689142D1
:1020B00003D343689A18914202D380680028F5D16F
:1020C0007047DFF83000016891B94FF480318160CA
:1020D0004FF4805141604FF0FF31C1600161042134
:1020E000DFF814204161C2F8BC11DFF81010016064
:1020F000012070474C140020BC1000206859883C17
:1021000000B970472DE9F047A0F10804C046C04669
:10211000DFF8FC5428698442C0F07482616801F0E1
:102120000302012A00F06E82CA084FEAC208CA07F9
:1021300008EB040936D4226811F0030F00F0648222
:10214000A41A84429044C0F05D8269698C4200F018
:10215000D880D608202E70D2D4F80CA0A768544599
:1021600008BF00F0C3FABC4208BF00F0BFFA6068C5
:10217000C008C000B0EBC60F18BF00F0B7FA05EBFF
:10218000C60000F128018F4205D029698F4251D342
:10219000F968A1424ED1BA453DD128680121B1402C
:1021A000884328604C4580F02D82D9F80400C1078F
:1021B00040F12882810700F17A81A969894540F0C0
:1021C000B580E868AC614044E86040F001016160BE
:1021D00069698C4202D100216961A960E969814283
:1021E00080F01282DFF82C04006808B9FFF769FF5D
:1021F000A969002900F00882E868292824BF284638
:10220000FFF752FFE869E968884280F0FD814FF0EE
:10221000FF30E861F8E12830824506D02869824520
:1022200008D3DAF80800A04204D1C7F80CA0CAF815
:102230000870B7E700F05AFAB4E7E768A669A74262
:102240000BD0A168814222D3C868A04204BFB868FD
:10225000A0421CD1CF60B9601BE004F114010F68EB
:1022600037B904F110010F689FB101E011460F6802
:1022700007F114021368002B02BF07F11002136864
:10228000002BF3D1814202D30020086001E000F06E
:102290002DFA002E86D0E06905EB800000F59870DD
:1022A00001688C4209D10760380011D1E269686881
:1022B000012191408843686074E72869864205D30C
:1022C0003069A04214BF7761376101E000F00EFA77
:1022D000002F3FF467AF28698742ABD3BE61216905
:1022E00029B1814226BF39618F6100F0FFF9606931
:1022F00000283FF457AF296988429BD378618761F2
:1023000050E799F8040000F0030003287FF44AAF77
:10231000C5F80880D9F8040040084000C9F8040056
:1023200048F00100606048F804806DE16969894502
:1023300008D1A8686C614044A86040F00101616068
:10234000005161E1C008C0004FEAD00ABAF1200F85
:10235000804436D2D9F80C70D9F80860B94508BF66
:1023600000F0C4F9B14508BF00F0C0F9D9F8040085
:10237000C008C000B0EBCA0F18BF00F0B7F905EBFA
:10238000CA0000F128018E4206D029698E42C0F0B1
:102390008180F16849457DD1B74206D12868012185
:1023A00001FA0AF18843286076E02830874205D098
:1023B000286987426ED3B86848456BD1F760BE6024
:1023C0006AE0D9F80C70D9F818604F450DD0D9F8EB
:1023D00008002969884223D3C168494504BFB96808
:1023E00049451DD1C760B8601CE009F114000768B9
:1023F00037B909F110000768A7B101E0084607687E
:1024000007F114010A68002A02BF07F110010A68E7
:10241000002AF3D12969884202D30021016001E03A
:1024200000F064F9002E37D0D9F81C0005EB8000CD
:1024300000F59870016889450AD10760380012D10B
:10244000D9F81C206868012191408843686023E026
:102450002869864205D33069484514BF77613761E2
:1024600001E000F043F9BFB12869874212D3BE6191
:10247000D9F8101029B1814226BF39618F6100F06F
:1024800035F9D9F8140038B12969884202D3786146
:10249000876101E000F02AF948F00100606048F827
:1024A0000480686984420BD1C5F80880ACE040081C
:1024B0004000C9F8040048F00100606048F804805A
:1024C0004FEAD807202F22D205EBC70000F12809D8
:1024D0004E46B8F1100F38BF00F008F9286820FA0E
:1024E00007F1C90704D40121B9400843286007E077
:1024F000D9F80800296988422CBF064600F0F6F892
:10250000C9F80840F460A660C4F80C907CE05FEA6B
:10251000182008BF002123D0B0F5803F28BF1F211D
:102520001ED2A0F58071090C01F008018840A0F5C9
:102530008052120C02F004029040A0F580431B0C64
:10254000C1F10E0103F00203891AC91A984001EB88
:10255000D030C11D28FA01F202F0010101EB400167
:10256000002262612261E16105EB81006A6822FA62
:1025700001F3DB0700F5987006D4012303FA01F19B
:102580001143696004601CE000681F290EBF002130
:102590004908C1F1190108FA01F100E0104642684A
:1025A000D208D200424510D0CA0F00EB820202F1DD
:1025B000100349001A68002AF0D129698B4211D30F
:1025C0001C60A061E460A4600EE02A69816890420A
:1025D00028BF914206D3CC608460E060A1600020F7
:1025E000A06101E000F082F8286A401E28620BD149
:1025F000D5F8C80100E080680028FCD14FF0FF301A
:10260000286201E000F072F8C046C046BDE8F087DD
:10261000BC1000204C140020841A71EB030603D276
:10262000001BB141121973414FF4001C1CEB410F08
:1026300034BF7CEB430443E00C0DA4EB1356352E62
:1026400050DC45EAC323DB0A45EAC121C912B6F1D1
:1026500020050DDD63FA05F6EB4086EA030512421C
:1026600018BF45F00105C01851F100010CD213E06C
:1026700062FA06F5F2405540F3415A40B340F34048
:102680005A408018594107D349085FEA30005FEA91
:10269000350528BF45F0010501F58011420875F1A7
:1026A000004250F1000041EB0451F0BC4FF4001C1B
:1026B0001CEB410F38BF70470020090D090570471A
:1026C0001CEB410F10D252EA43060BD0BCEB410F7A
:1026D00005D80C0DAB43661E342EB5DD02E0AB43CE
:1026E00080185941F0BC7047F0BC7047012000F0E1
:1026F00001B8000080B5C046C046024A110018204B
:10270000ABBEFBE72600020010B50400002C0DD084
:10271000E06821280AD2A068212807D2DFF8400407
:1027200021001022FFF7E2FB002000E0012010BD95
:1027300038B50400002C01D1012020E00025A0685C
:1027400085420AD2206810EB85004188206830F865
:10275000250000F01FFA6D1CF1E70025E0688542B6
:102760000AD2606810EB85004188606830F8250067
:1027700000F006FA6D1CF1E700F048F8002032BDC9
:1027800038B504000D00DFF8D8038068A0420ED3EE
:102790002A00D2B2DFF8C803006810EB8400418839
:1027A000DFF8BC03006830F8240000F0FDF931BD0B
:1027B00010B50400DFF8A8038068A0420DD3DFF84D
:1027C000A003006810EB84004188DFF894030068E0
:1027D00030F8240000F0F5F900E0002010BD10B53D
:1027E0000400DFF87C03C068A0420DD3DFF870035B
:1027F000406810EB84004188DFF86403406830F8DB
:10280000240000F0DEF900E0002010BD70B544F6B1
:10281000206000F0F1F90024DFF84403C06884422E
:102820001AD22000FFF7DBFF202194FBF1F1DFF843
:102830003423202394FBF3F3DFF8285355F8233097
:10284000C0B2202594FBF5F606FB1546B0401843B0
:1028500042F82100641CDFE70024DFF804038068ED
:10286000844211D2202094FBF0F5DFF8FC622000B6
:10287000FFF79EFF202194FBF1F202FB11429040F2
:1028800046F82500641CE8E7002070BD10B4C9B20A
:10289000002913D0DFF8D422430952F82320C9B20B
:1028A0002023B0FBF3F404FB130411FA04F31A43DE
:1028B000DFF8B832440943F8242012E0DFF8AC22F4
:1028C000430952F82320C9B22023B0FBF3F404FBE0
:1028D000130411FA04F39A43DFF89032440943F8E1
:1028E000242010BC704738B504000D00A0486109D1
:1028F00050F821002021B4FBF1F202FB1142D0403C
:10290000C00701D595F001052900C9B22000FFF7E5
:1029100037FF31BDF8B56846002101609048C068B6
:10292000002803D08E484068002800D17CE00024B5
:102930008B48C068844217D2202094FBF0F56E4685
:10294000202094FBF0F0694651F820702000FFF73A
:1029500046FF202194FBF1F202FB114290403843E4
:1029600046F82500641CE3E700247D48C068401E4B
:102970004009401C844257D2684650F824007949E7
:1029800051F8241088420AD120250026794810EBFE
:102990004417320029003800FFF752FB42E00020C4
:1029A0006F49C968491EB4EB511F08D16C49C96809
:1029B0002022B1FBF2F303FB1213180001E02021E7
:1029C0000800002181422DDA6A4652F824200123B2
:1029D0008B401A40634B53F8243001258D402B4027
:1029E0009A4205D10022634B13EB4413CA5417E0FB
:1029F000604A12EB44128A5C521C5E4B13EB441388
:102A0000CA545C4A12EB44128A5C042A08DB554A19
:102A100052F8242001238B405A40524B43F8242083
:102A2000491CCFE7641CA0E7F1BDF8B5684600215A
:102A300001604B488068002803D04948006800289E
:102A400000D17CE0002446488068844217D22020D0
:102A500094FBF0F56E46202094FBF0F0694651F8A7
:102A600020702000FFF7A4FE202194FBF1F202FB6E
:102A700011429040384346F82500641CE3E70024E7
:102A800037488068401E4009401C844257D268463F
:102A900050F82400344951F8241088420AD12025E6
:102AA0000026354810EB4417320029003800FFF7A4
:102AB000C7FA42E000202A498968491EB4EB511F39
:102AC00008D1274989682022B1FBF2F303FB1213D6
:102AD000180001E020210800002181422DDA6A4619
:102AE00052F8242001238B401A401F4B53F8243006
:102AF00001258D402B409A4205D100221E4B13EB3D
:102B00004413CA5417E01C4A12EB44128A5C521C4C
:102B1000194B13EB4413CA54174A12EB44128A5C44
:102B2000042A08DB104A52F8242001238B405A4023
:102B30000D4B43F82420491CCFE7641CA0E7F1BDEE
:102B400080B50E4800F08AF8002807D005210B4810
:102B500000F06CF8FFF7DEFEFFF767FF01BD000035
:102B60007414002094140020981400209C14002059
:102B7000A01400200C1400202C140020640000205D
:102B800038B504000D00290089B2200080B2FEF79C
:102B900003F931BD38B504000D00290089B22000C9
:102BA00080B2FEF704F931BD70B504000D001600C7
:102BB0003200D2B2290089B2200080B2FEF7BDF8FF
:102BC00070BD38B504000D00290089B2200080B224
:102BD000FEF7D4F832BD0000814201D3081A00E0AC
:102BE000081A704710B50400012000F054F810BD19
:102BF00080B500F04CF802BD81B000210091009931
:102C0000814203D20099491C0091F8E701B0704756
:102C100038B50400FFF7ECFF0500FFF7E9FF0100FE
:102C20002800FFF7D9FFA042F7D331BD38B5040023
:102C30000D000120206000206060A560FFF7D8FF34
:102C4000E06031BD38B504000D0001202060012096
:102C50006060A560FFF7CCFFE06031BD10B50400F7
:102C60002068002801D1002010E0FFF7C1FF01001B
:102C7000E068FFF7B1FFA168884206D360680028CA
:102C800001D000202060012000E0002010BD80B5B0
:102C900000F03EF802BD10B50400200000F03BF843
:102CA00010BD000010B440B2002808D50A01244B22
:102CB00040B210F00F04E31803F8042C03E00A01FB
:102CC000204B40B2C25410BC704710B50400601EC7
:102CD000B0F1807F01D301200EE0601E1A49086028
:102CE0000F215FF0FF30FFF7DDFF0020174908607C
:102CF000072017490860002010BD1649086070477A
:102D00001548006813490968081813490860704796
:102D100011480068704710B5040000F04DF80F48E6
:102D200000684FF47A71B0FBF1F06043FFF7CDFF1C
:102D30002000FFF7E2FF00210948FEF74FF910BD20
:102D400018ED00E000E400E014E000E018E000E02E
:102D500010E000E0B4000020A4140020B80000201F
:102D6000012D000880B57548006850F001007349D6
:102D700008607348006873490840714908606F48EB
:102D80000068714908406D4908606C48006830F47B
:102D900080206A4908606A48006830F4FE0068498B
:102DA00008605FF41F006949086000F053F85FF0A5
:102DB00000606749086001BD10B4002000210022B6
:102DC0005F4B1B6813F00C0318000300002B04D0AA
:102DD000042B06D0082B08D02BE05E4B5E4C236002
:102DE0002AE05C4B5C4C236026E0554B1B6813F4D7
:102DF00070131900524B1B6813F480331A00890CAE
:102E0000891C002A05D1554B03FB01F3524C23606A
:102E10000EE04B4B1B689B0305D5504B03FB01F3A6
:102E20004D4C236004E04B4B03FB01F34A4C236001
:102E300002E0484B484C2360414B1B68484CC3F3AD
:102E400003131B5D1800444B1B68C340424C2360B6
:102E500010BC704780B500F001F801BD82B00020C1
:102E60000190002000903548006850F480303349CC
:102E700008603248006810F4003000900198401C4F
:102E800001900098002803D10198B0F5A06FF0D10F
:102E90002A480068800302D50120009001E000204C
:102EA00000900098012847D12E48006850F010008B
:102EB0002C4908602B480068800880002949086078
:102EC0002848006850F00200264908601C48006845
:102ED0001B4908601A4800681949086018480068CA
:102EE00050F48060164908601548006830F47C1082
:102EF000134908601248006850F4E810104908604F
:102F00000E48006850F080700C4908600B4800685B
:102F10008001FBD50A4800688008800008490860E5
:102F20000748006850F0020005490860044800683E
:102F300010F00C000828F9D102B0704700100240D0
:102F4000041002400000FFF8FFFFF6FE08100240E8
:102F500008ED00E000127A00B800002000093D00F2
:102F6000740000200020024080B5DFF80401FFF764
:102F7000CBFBDFF8FC00FFF7DBFB01210320FFF7B1
:102F800085FC01210420FFF781FC01210520FFF7CA
:102F90007DFC01210620FFF779FC01210720FFF7C6
:102FA00075FC00210120FFF79EFC00210220FFF7A5
:102FB0009AFC00210320FFF796FC00210420FFF774
:102FC00092FC00210520FFF78EFC00210620FFF770
:102FD0008AFC00210720FFF786FC00210820FFF76C
:102FE00082FC00210920FFF77EFC00210A20FFF768
:102FF0007AFC00210B20FFF776FC00210C20FFF764
:1030000072FC01210D20FFF76EFC01BD80B5FFF7BA
:10301000ABFF5FF4E131002000F034F85FF4E13100
:10302000012000F02FF8684612490A680260012169
:10303000684600F031F801BD80B50F48FFF70EFE7D
:10304000002803D064210C48FFF7FCFD01BD80B5CA
:103050000A48FFF703FE002809D04FF47A710748A9
:10306000FFF7F0FD06480068401C0549086001BDF7
:10307000A4000020283300088400002094000020D1
:10308000BC14002038B504000D0029002000C0B297
:1030900000F01AF8002032BDF8B504000D00EDB2C2
:1030A000052D01DB01200AE0EDB2AE00044F320035
:1030B00021003800FEF70AFF024805700020F2BD2B
:1030C00084140020C014002038B504000D0029002D
:1030D0002000C0B2FDF7F0FB002032BD19E050F82F
:1030E000041BCB0744BFA9F101035918121F002389
:1030F000042A41F8043BF9D25FEA827C0B4604D5EE
:103100004FF0000CA1F800C09B1CD10744BF002168
:10311000197050F8042B002AE1D1704780B500F0F7
:1031200018F801BD80B50448FFF798FD002801D0CC
:10313000FFF7F4FF01BD00006414002080B500F02B
:103140000CF801BD10B504002000C0B200F009F871
:1031500010BD80B5FEF779FB01BD80B562B6C046F3
:1031600001BD10B504002000C0B2FEF788FB10BD01
:1031700080B54EF66020FFF73FFD00F011F8FFF735
:10318000DDFF0120FFF72EFD0020C04600F00CF807
:10319000002002BD80B5FFF7D3FCFFF7C3FF01BDE0
:1031A00080B500F011F801BD10B500240020C04624
:1031B0000449086003480068002801D1012000E0AC
:1031C000200010BDB814002080B5FDF7FCFD01BD46
:1031D00010B450F8041B79B1026843681218083023
:1031E000DC0744BFA9F10104E31852F8044B43F88B
:1031F000044B091FF9D1ECE710BC704710B5074923
:1032000079441831064C7C44163404E00A68081DE1
:10321000511888470146A142F8D110BD08000000AE
:1032200028000000B9FEFFFF08140000BC000020C9
:10323000000000009DFFFFFFBC0000001001000027
:10324000000000200000000080B5C820FFF7E0FC6F
:103250000220FFF777FFFFF7D9FE01BD80B5FFF72A
:10326000EBFEFFF7F4FE01BD00080140000C014039
:10327000001001400014014000180140001C0140F2
:10328000002001400120C046002801D0FFF7B6FF12
:103290000020C046C04600F002F800F00AF880B5F1
:1032A000FFF766FFFFF7D0FFFFF774FFFFF7D6FFCA
:1032B000FAE700F001B8000007463846FFF71AFAAF
:1032C000FBE7000000380140004400400048004097
:1032D000004C0040580002406C00024030000240A8
:1032E0003004024044000240800002401C000240C2
:1032F00058040240BC080020BC0A0020BC0C00207E
:10330000BC0E00200148804701480047652D000899
:1033100015330008C046C046C046C046FFF7B2FF9E
:10332000252627340E110C3B03000000FFF7FEBFDB
:10333000FFF7FEBFFFF7FEBFFFF7FEBFFFF7FEBFC1
:10334000FFF7FEBFFFF7FEBFFFF7FEBF000008005C
:10335000010008000100090001000F0001000D003C
:103360000100070001000600010005000100040043
:10337000020008000200090002000A0002000B001F
:1033800002000D000200050000000400000005001E
:1033900000000D0002000100020002000200030014
:1033A0000200040002000600020007000200000004
:1033B000010000000000000000000000000000000C
:1033C00000000000000000000102030406070809D5
:1033D00001000000000000000000000000000000EC
:1033E00001000000000000000000000000000000DC
:1033F00000000020380000200E0000000B0000003C
:083400000100000000A24A04D3
:0400000508003315A7
:00000001FF
